:020000040800F2
:10000000784C002029030008971F0008FD1D0008F8
:10001000951F0008F50600089D2700080000000055
:10002000000000000000000000000000690200085D
:100030003109000800000000C5020008E1230008A3
:100040004303000843030008430300084303000878
:100050004303000849210008430300084303000844
:100060004303000843030008430300084303000858
:100070004303000843030008430300084303000848
:100080004303000843030008430300084303000838
:10009000F90600084303000843030008430300086F
:1000A00043030008B1240008430300084303000889
:1000B0004303000843030008430300084303000808
:1000C00043030008430300084303000843030008F8
:1000D00043030008430300084303000843030008E8
:1000E00043030008430300084303000843030008D8
:1000F000BD2400084303000843030008430300082D
:1001000043030008430300084303000843030008B7
:1001100043030008430300084303000843030008A7
:100120004303000843030008430300084303000897
:100130004303000843030008430300084303000887
:100140004303000843030008430300084303000877
:100150004303000843030008430300084303000867
:100160004303000843030008430300084303000857
:100170004303000843030008430300080000000095
:10018000430300084303000800F002F800F05CF8A5
:100190000AA090E8000C82448344AAF10107DA45E2
:1001A00001D100F051F8AFF2090EBAE80F0013F0D8
:1001B000010F18BFFB1A43F0010318478C600000C1
:1001C000AC6000000A444FF0000C10F8013B13F043
:1001D000070408BF10F8014B1D1108BF10F8015BA0
:1001E000641E05D010F8016B641E01F8016BF9D193
:1001F00013F0080F1EBF10F8014BAD1C0C1B09D1EA
:100200006D1E58BF01F801CBFAD505E014F8016B5B
:1002100001F8016B6D1EF9D59142D6D370470000ED
:100220000023002400250026103A28BF78C1FBD8FF
:10023000520728BF30C148BF0B6070471FB505F09B
:100240006DFF1FBD10B510BD00F00EFA1146FFF78F
:10025000F5FF02F0C1FE00F040FA03B4FFF7F2FF31
:1002600003BC02F02DFC00002C4B19680868B0E8B4
:10027000F04F80F30988BFF36F8F4FF0000080F3D9
:10028000118870470000000008480068006880F38B
:1002900008884FF0000080F3148862B661B6BFF39F
:1002A0004F8FBFF36F8F00DF00BF00BF08ED00E08E
:1002B000DFF80C00016841F470010160704700BF75
:1002C00088ED00E0EFF30980BFF36F8F134B1A68DE
:1002D0001EF0100F08BF20ED108A20E9F04F1060CB
:1002E00009B44FF0500080F31188BFF34F8FBFF374
:1002F0006F8F05F021FA4FF0000080F3118809BCE0
:1003000019680868B0E8F04F1EF0100F08BFB0EC95
:10031000108A80F30988BFF36F8F704714040020A0
:10032000EFF30580704700000948804709480047FF
:10033000FEE7FEE7FEE7FEE7FEE7FEE7FEE7FEE795
:10034000FEE7FEE704480549054A064B70470000F2
:10035000A12400088901000878460020784C00207C
:100360007848002078480020704753EA020C00F0DB
:1003700069802DE9F04B4FF00006002B1FBFB3FA48
:1003800083F503FA05F424FA05F65E4012BF16431E
:10039000B2FA82F502FA05F4C5F120051EBF22FA71
:1003A00005FC44EA0C04203556EA044C4FEA144498
:1003B00018BF641C4FF000084FF00009904271EB29
:1003C000030C39D3002919BFB1FA81F701FA07F6F6
:1003D000B0FA80F700FA07F6C7F120071EBF20FA2F
:1003E00007FC46EA0C062037B6FBF4FCA7EB050732
:1003F000103F07F01F0BCBF120060CFA0BFB2CFA79
:1004000006F644BFB3460026202FA4BF5E464FF039
:10041000000B5BEA060C08BF4FF0010B19EB0B0950
:10042000ABFB027C48EB0608C01B06FB02CC0BFBB7
:1004300003CC71EB0C01C1E70B460246414648462E
:10044000BDE8F08B13B54FF000004FF00001AFF3A3
:100450000080BDE81C4070470FB4044910B503AAE2
:10046000029800F0D3F810BC5DF814FB00040020E3
:1004700040EA010310B59B070FD1042A0DD310C821
:1004800008C9121F9C42F8D020BA19BA884201D973
:10049000012010BD4FF0FF3010BD1AB1D30703D0BB
:1004A000521C07E0002010BD10F8013B11F8014B71
:1004B0001B1B07D110F8013B11F8014B1B1B01D18D
:1004C000921EF1D1184610BD032A40F2308010F080
:1004D000030C00F0158011F8013BBCF1020F6244DF
:1004E00098BF11F801CB00F8013B38BF11F8013B70
:1004F000A2F1040298BF00F801CB38BF00F8013B1D
:1005000011F0030300F02580083AC0F0088051F88C
:10051000043B083A51F804CBA0E80810F5E7121D97
:100520005CBF51F8043B40F8043BAFF30080D207B6
:1005300024BF11F8013B11F801CB48BF11F8012B82
:1005400024BF00F8013B00F801CB48BF00F8012BA5
:10055000704710B5203AC0F00B80B1E81850203A2F
:10056000A0E81850B1E81850A0E81850BFF4F5AF53
:100570005FEA027C24BFB1E81850A0E8185044BFDD
:1005800018C918C0BDE810405FEA827C24BF51F84A
:10059000043B40F8043B08BF7047D20728BF31F83E
:1005A000023B48BF11F8012B28BF20F8023B48BF8F
:1005B00000F8012B70474FF0000200B51346944637
:1005C0009646203922BFA0E80C50A0E80C50B1F1AB
:1005D0002001BFF4F7AF090728BFA0E80C5048BFBF
:1005E0000CC05DF804EB890028BF40F8042B08BF5D
:1005F000704748BF20F8022B11F0804F18BF00F859
:10060000012B70477047704770477047074B70B5B4
:100610000D467B4400F011F80446284600F020F80F
:1006200010B14FF0FF3070BD204670BD7B27000039
:1006300001694A1C02610878704700B58FB0CDE9A6
:1006400001310021059105497944CDE90310114696
:10065000684600F02EF80FB000BD0000E5FFFFFF78
:10066000007B00F080007047754600F03FF8AE4612
:1006700005006946534620F00700854618B020B5AE
:10068000FFF760FEBDE820404FF000064FF0000786
:100690004FF000084FF0000B21F00701AC46ACE82A
:1006A000C009ACE8C009ACE8C009ACE8C0098D4697
:1006B00070472DE9F04106460024D6E90170F5683F
:1006C0008046304603E04146B847641C3046A847A0
:1006D0000028F8D12046BDE8F08110B50446AFF3FC
:1006E00000802046BDE81040FFF7B7BD00487047C6
:1006F00014460020FEE70000014800F0ECBA0000BC
:100700006807002030B58BB00024012503940E202B
:100710000494CDE90850CDE9064505940094019470
:10072000029469460F4800F0C5F908B100F018F9C5
:100730000C4800F0CFFC08B100F012F90221094882
:1007400000F041F908B100F00BF9074840F22131FF
:10075000C4608460C0E900150221016104750BB01A
:1007600030BD0000680700205007002070B5184811
:100770004FF0FF321549006805F046FA012823D1F1
:10078000124800F1240102880A80C268022A05D0BA
:1007900000228A700369CB70002206E00122F8E78C
:1007A00084188D18247F2C71521C9342F8D8094864
:1007B00001F0D8F905490848243102F0EDF9BDE807
:1007C0007040044801F08EB970BD0000A8040020FC
:1007D000F40300209007002094010020FFF792FF0F
:1007E00002F042FAFFF7C2FFFCE770470149002020
:1007F000087070470400002001A0FFF72DBE000024
:10080000434F5F736C6176655F6F70657261746989
:100810006F6E616C0A0000007047704770470000FF
:1008200001A0FFF719BE0000434F5F736C6176654E
:100830005F7072654F7065726174696F6E616C0A8A
:100840000000000001A0FFF707BE0000434F5F73E8
:100850006C6176655F73746F707065640A00000088
:100860000020704730B4D0F89C20D0F8A0404FF062
:10087000FF3352F8212024F81130C2F3074201213E
:10088000831883F8B010D0F8AC3030BC114618474C
:100890002DE9F04F9946DDE90A5A4FF0FF3BDDF8AC
:1008A00024C041E0AB1A5BB20C78002B03DD00BF23
:1008B00004FA03F403E0C3F1000324FA03F4E6B2FC
:1008C00002DDC5F1080301E0C2F10803DCB2844295
:1008D00000D9044605EB0408FF2707FA08F3C5F121
:1008E0000805EF403B439CF800509E431D403543B4
:1008F0002244D2B28CF80050072A07D90022B9F15D
:10090000000F01D05B4600E00123194408F0FF0509
:10091000072D07D90025BAF1000F01D05B4600E092
:1009200001239C44001BC0B20028BBD1BDE8F08F5E
:1009300070470000411C0CD00749B1F900209042DB
:1009400001D1521E0A80054A00EB4000002102F846
:1009500030104FF0FF3070477C04002054450020D9
:1009600072B6FEE770B50546D0F83801008818B3B6
:1009700000242E1996F8B0000F2818D028680078A7
:10098000A04214D096F8400140B9D5F8342112B1F4
:10099000214628469047012086F8B00096F840018D
:1009A0002146401E86F84001284602F02CFB641CBC
:1009B000E4B2802CDDD370BDB5F93001FFF7BAFF8A
:1009C000A5F8300170BD90F82020012A07D0022A36
:1009D00005D0416A41F480214162012070470068DE
:1009E00042690A43426100207047F0B590F82050F8
:1009F0000468A468012D05D0022D03D0416A41F49A
:100A0000802153E014F0406F01D1E5004BD5C4F3D1
:100A10000164022C03D9416A41F4000146E001253A
:100A2000A5401D608D684FF4C0739DB1CE683543FD
:100A30004E6845EAC605066803EB0417F5514FF406
:100A4000C275076805EB04150E697E51097D012901
:100A500005D009E00E88CD6845EA4655EBE7016808
:100A60004E5946F480764E511179D2F805504FF424
:100A7000C67641EA0525016806EB04168D5111780A
:100A8000D2F801204FF4C47541EA0221026805EB57
:100A900004155151006803EB0411425842F0010261
:100AA00042500020F0BD416A41F400114162012032
:100AB000F0BD000010B590F82020012A07D0022ACE
:100AC00005D0416A41F480214162012010BD3B48BC
:100AD000D0F8002242F00102C0F80022D0F8002233
:100AE00022F47C52C0F80022D0F800224B6A42EA7D
:100AF0000322C0F800220A7D02F01F0301229A405F
:100B0000D0F81C329343C0F81C32CB69B3B9D0F88B
:100B10000C329343C0F80C328C894B6864F31F434A
:100B20004C6900EBC404C4F840320C890B6864F3D0
:100B30001F434C6900EBC404C4F84432CB69012B59
:100B400016D1D0F80C321343C0F80C320C884B6825
:100B500064F31F434C6900EBC404C4F840320C89B1
:100B6000CB6864F31F434C6900EBC404C4F84432FF
:100B70008B69002BD0F804320ED01343C0F8043236
:100B80000B69002BD0F8143208D01343C0F814328C
:100B9000096A012904D008E09343EFE79343F5E79E
:100BA000D0F81C121143C0F81C12D0F8001221F02A
:100BB0000101C0F80012002010BD000000640040D8
:100BC000704730B590F82040012C05D0022C03D09E
:100BD000416A41F480215DE00468002955D0246910
:100BE000A40754D04FF4D874056804EB01142D59B0
:100BF00015F00405956005682D594ED0ED08556037
:100C000005682C5904F00204D4604FF4DA740568C6
:100C100004EB01142D5905F00F05156105682D59D8
:100C2000C5F30725956105682C59240C54614FF4D0
:100C3000DC72046802EB0112A4581C700468A4580A
:100C4000240A5C700468A458240C9C700468A258A0
:100C5000120EDA704FF4DE72046802EB0112A4582F
:100C60001C710468A458240A5C710468A458240CFC
:100C70009C710468A258120EDA71006881B1016992
:100C800041F020010161002030BDE468A8E7416A1D
:100C900041F400114162012030BD6D0D1560AFE7D8
:100CA000C16841F02001C160EDE70246002092F8E2
:100CB0002010012901D002290CD111688A68520143
:100CC00000D501208A68120100D5401C8968C9003E
:100CD00000D5401C70472DE9F05F054600680024F0
:100CE0004669D0F804908768D0F80CB0D0F810A00E
:100CF000D0F81880F10748D0F90714D0012181609D
:100D0000B80703D5284600F012FA0CE0780702D5A0
:100D10004FF4006407E0380702D54FF4805402E036
:100D2000284600F003FAF80516D529684FF48070BC
:100D30008860B80503D5284600F0FBF90CE078057B
:100D400002D544F4005407E0380502D544F4804449
:100D500002E0284600F0ECF9F80316D529684FF4B4
:100D600080308860B80303D5284600F0E4F90CE031
:100D7000780302D544F4004407E0380302D544F474
:100D8000803402E0284600F0D5F9300707D55FEA45
:100D9000CB6004D52968102044F40074C860700743
:100DA0004FF0080707D55FEA0B7004D52868C760C5
:100DB000284600F059F9B00706D52868C0688007B2
:100DC00002D0284600F052F9700607D55FEACA60E3
:100DD00004D52968102044F480640861B00607D562
:100DE0005FEA0A7004D528680761284600F06EF9AA
:100DF000F00606D528680069800702D0284600F072
:100E000066F9B00308D55FEAC96005D529681020E6
:100E10004860284600F05CF9F00307D55FEA0970E6
:100E200004D528684760284600F086F9300446D586
:100E30005FEA497040D5F00504D55FEAC87001D07B
:100E400044F00104B00504D55FEA887001D544F090
:100E50000204700504D55FEA487001D544F004042B
:100E6000300529D518F0700F26D008F07000402802
:100E700015D006DC102809D020280AD0302816D139
:100E80000AE050280ED0602811D10EE044F008048A
:100E90000DE044F010040AE044F0200407E044F0C0
:100EA000400404E044F0800401E044F480742868C5
:100EB000816921F070018161296804204860002C5B
:100EC00005D0686A204368622846FFF779FEBDE8CE
:100ED000F09F70B5040003D094F8200010B104E036
:100EE000012070BD204600F081F82068016841F0C3
:100EF0000101016000F020FA0546052604E000F03B
:100F00001BFA401B0A2811D820684068C007F6D099
:100F10002068016821F00201016000F00DFA054629
:100F20000BE000F009FA401B0A2806D9606A40F479
:100F30000030606284F82060D2E720684068800753
:100F4000EFD4207E0128206801683DD021F0800187
:100F50000160607E01282068016838D021F04001DE
:100F60000160A07E01282068016833D021F02001B3
:100F70000160E07E0128206801682ED041F0100158
:100F80000160207F01282068016829D021F0080134
:100F90000160607F01282068016824D021F00401ED
:100FA0000160D4E902010843D4E904121143084363
:100FB0006168491E08432168C86100206062012001
:100FC00084F82000002070BD41F08001C0E741F0AE
:100FD0004001C5E741F02001CAE721F01001CFE749
:100FE00041F00801D4E741F00401D9E710B586B01B
:100FF000044614216846FFF7DEFA18492068884243
:1010000029D117480021026842F00072026000688E
:1010100000F00070059012481038026842F001029A
:101020000260006800F0010005904FF4C05000908D
:101030000220CDE9010103200390092004906946B4
:10104000084800F07BF800220521142000F00AFA7D
:10105000142000F0F9F906B010BD00000064004053
:1010600040380240000002407047000010B50068A0
:10107000104988421CD1104B0021A3F11C020F48DB
:10108000FFF79FFD002813D10E480B4900230C4A9F
:101090001C39006804F058FD09480068002807D092
:1010A00009494FF080500860BFF34F8FBFF36F8F37
:1010B00010BD000000640040F40400206807002018
:1010C000E4030020F403002004ED00E070477047C3
:1010D0007047000070B5044690F82000012804D045
:1010E000606A40F40020606218E0022084F820006A
:1010F0002068016821F00101016000F01DF905463A
:101100000EE000BF00F018F9401B0A2808D9606AF9
:1011100040F400306062052084F82000012070BD9A
:1011200020684068C007EDD1606270BD70477047AD
:101130007047704770477047704700002DE9F84FBF
:10114000DFF8BCA1002201250AF1040B03264FF0B1
:101150000F090BF1040E00BF0B6805FA02F42340DF
:10116000A34270D10F7907F00307012F01D0022F9E
:1011700016D187684FEA420806FA08FC27EA0C07EE
:10118000D1F80CC00CFA08FC4CEA070CC0F808C0F7
:101190004768A7430C79C4F3001494403C4344606F
:1011A0000C79E443A4070AD0C4684FEA420C06FA5B
:1011B0000CF7BC438F6807FA0CF72743C7600C791C
:1011C00004F00304022C12D1D40800EB840CDCF8E8
:1011D00020405707FF0E09FA07F824EA0804D1F85F
:1011E000108008FA07F848EA0408CCF82080046860
:1011F0004FEA420C06FA0CF7BC430F7907F00307DD
:1012000007FA0CF7274307604C6814F4403F70D08E
:101210003C4C276847F480472760246822F0030786
:1012200004F480440094384C07EB040CDCF80848C4
:1012300097074FEA177809FA08F7BC43334FB842CB
:1012400002D1002724E054E0314FB84201D10127F8
:101250001EE0304FB84201D1022719E02E4FB842AC
:1012600001D1032714E02D4FB84201D104270FE02C
:101270002B4FB84201D105270AE02A4FB84201D1CD
:10128000062705E0284FB84201D1072700E00827CC
:1012900007FA08F72743CCF80878DAF800405746F1
:1012A000D1F804C09C435FEACC3C00D51C433C60B1
:1012B000DBF800405F46D1F804C09C435FEA8C3CF9
:1012C00000D51C433C60DEF800407746D1F804C0EE
:1012D0009C435FEACC2C00D51C433C60084F0C3784
:1012E0003C68D1F804C09C435FEA8C2C00D51C43B9
:1012F0003C60521C102AFFF42FAFBDE8F88F0000AD
:10130000003C0140443802400030014000000240EF
:101310000004024000080240000C0240001002409D
:101320000014024000180240001C02400AB1816112
:1013300070470904FBE7000001488068704700001F
:1013400004040020024881680278114481607047DB
:10135000040400200B4810B5016841F400710160DD
:10136000016841F480610160016841F480710160AD
:10137000032000F097F80F2000F006F800F03EF888
:10138000002010BD003C024010B5014688B000228C
:10139000192000F067F8192000F056F813480024CF
:1013A000016841F001010160006805A900F0010039
:1013B0000690684600F022F900F050F90C49400010
:1013C000B0FBF1F10C480B4A491E026040F2E732D3
:1013D000C0E90324C0E9011400F038FB10B101207A
:1013E00008B010BD044800F07DFBF9E74438024026
:1013F00040420F00000001401C080020114808B5C1
:10140000016841F480410160006800F48040009070
:101410000C48001F016841F0805101600068002203
:1014200000F0805000900F21901E00F01BF8052165
:101430000022084600F016F8BDE80840052000F03C
:1014400003B8000044380240002809DB00F01F0206
:10145000012191404009800000F1E020C0F8001116
:1014600070470000F0B40E4B1B680C46C3F3022318
:10147000C3F10705042D00D90425191D072901D240
:10148000002300E0DB1E012606FA05F1491E21407B
:1014900099409E40761E16403143F0BC01F080B961
:1014A0000CED00E0064900F0070208684FF6FF0364
:1014B000184040EA0220034A1043086070470000C9
:1014C0000CED00E00000FA052DE9F0470E4605009E
:1014D00065D0DFF81481D8F80000F7B200F00700FB
:1014E000B04207D288F80070D8F8000000F007007A
:1014F000B04254D128683D4C810712D5400703D52E
:10150000206840F4E05020602878000703D5206868
:1015100040F4604020602068A96820F0F000084393
:1015200020602878C0072DD0304968680839012824
:1015300012D0022813D0032811D009688907002986
:101540002DDA216821F0030101432160FFF7F4FE49
:10155000814641F2883A0EE009688903EFE709689D
:101560008901ECE7FFF7E8FEA0EB0901514502D93C
:101570000320BDE8F0872068696800F00C00B0EB3C
:10158000810FEFD1D8F80010404601F00701B142B9
:1015900007D90770006800F00700B04201D00120B1
:1015A000E7E72878400705D52068E96820F4E0508F
:1015B000084320602878000706D52068296920F4B0
:1015C000604040EAC100206000F058F82168084AF5
:1015D000C1F30311515CC840064908600648006821
:1015E000FFF7D2FE0020C4E7003C0240083802406A
:1015F000DC61000810040020080400200F220260B3
:101600000C4A136803F003034360136803F0F0030C
:101610008360136803F4E053C36012684FF4E0532F
:1016200003EAD20202610448006800F00700086083
:101630007047000008380240003C02400448054959
:1016400000680968044AC1F38221515CC8407047B0
:101650001004002008380240EC61000804480549E5
:1016600000680968044AC1F34231515CC8407047C0
:101670001004002008380240EC610008154810B53D
:10168000006810F00C02144813D04110042A0FD047
:10169000082A0ED10F4C241F2268236802F03F0253
:1016A0005B0207D52068C0F38810A0FB010106E0AB
:1016B000084610BD2168C1F38811A1FB0001002379
:1016C000FEF753FE2168C1F30141491C4900B0FBFC
:1016D000F1F010BD083802400024F4002DE9F84F65
:1016E00004006ED02078DFF84C93C007A9F1040500
:1016F0004AD009F104000168C1F38101012908D031
:101700000068C0F3810002280AD1D9F80000400225
:1017100006D52868800337D560680028E1D033E01B
:101720006068B0F5803F10D0B0F5A02F286810D0C9
:1017300020F480302860286820F4802028606068C9
:10174000A8B1FFF7F9FD06460DE0286840F48030A7
:10175000F4E740F480202860F7E700BFFFF7ECFDD6
:10176000801B642873D828688003F7D50CE0FFF746
:10177000E3FD064605E000BFFFF7DEFD801B6428A1
:10178000F0D828688003F7D42078DFF8AC8280078F
:101790004FF0000A3ED5A748001D016811F00C0F5C
:1017A00008D00068C0F3810002280BD1D9F80000EE
:1017B000400207D42868800716D5E068012800D1C8
:1017C00012E033E1E068B8B10120C8F80000FFF78B
:1017D000B3FD064605E000BFFFF7AEFD801B022803
:1017E000C0D828688007F7D52868216920F0F8005C
:1017F00040EAC10028600DE0C8F800A0FFF79CFD9A
:10180000064604E0FFF798FD801B02281FD82868D1
:101810008007F7D42078000722D5864F8748616972
:10182000703771B101210160FFF786FD064604E0C3
:10183000FFF782FD801B022809D838688007F7D59A
:101840000EE0C0F800A0FFF777FD064605E082E055
:10185000FFF772FD801B02287DD838688007F7D417
:101860002078400768D5DFF8CCB100270BF13C0B9E
:10187000DBF80000C0000BD4DBF8001041F0805111
:10188000CBF80010DBF80000012700F0805000903A
:101890006B4E3068C00510D4306840F48070306002
:1018A000FFF74AFD009005E0FFF746FD0099401A5A
:1018B000022850D83068C005F6D55E4EA0686C3658
:1018C00001280FD00528306810D020F001003060CA
:1018D000306820F004003060A068B8B1FFF72CFD3C
:1018E00000900FE0306840F00100F4E740F00400A1
:1018F0003060F7E7FFF720FD0099411A41F2883088
:10190000814266D830688007F4D50EE0FFF714FDF9
:10191000009007E0FFF710FD0099411A41F288306E
:10192000814256D830688007F4D42FB1DBF800101C
:1019300021F08051CBF80010A069C8B33D49091DC2
:101940000968C1F3810102294AD00228504607D014
:10195000C8F8600000E03CE0FFF7EEFC04463BE026
:101960004746C8F86000FFF7E7FC064605E000BF01
:10197000FFF7E2FC801B02282BD828688001F7D4EF
:10198000D4E907010843A16A2E4A490802EB014144
:10199000626A41EA8211084394F82C1040EA01611E
:1019A000C9F8001001203866FFF7C6FC044606E0BF
:1019B0003EE000BFFFF7C0FC001B022809D82868E2
:1019C0008001F7D534E000BFFFF7B6FC001B02280A
:1019D00002D90320BDE8F88F28688001F4D427E0FD
:1019E0000128F7D0D9F80000E26900F480019142A3
:1019F0001CD1226A00F03F01914217D147F6C07115
:101A0000626A0140B1EB821F10D1A26A4FF0FF332E
:101A100000F4403103EB5202B1EB024F06D194F8CF
:101A20002C1000F07060B0EB016F01D00120D1E705
:101A30000020CFE70438024000004742800E4742B2
:101A4000007000400000FFFF7047704710B50400B1
:101A500003D094F83D0010B107E0012010BD002034
:101A600084F83C00204600F01FF8022084F83D0076
:101A7000211D206800F028FD012084F8460084F82C
:101A80003E0084F83F0084F8400084F8410084F868
:101A9000420084F8430084F8440084F8450084F848
:101AA0003D00002010BD000008B500680B498842C9
:101AB00012D10B48016841F08001016000680022EA
:101AC00000F08000009005212C20FFF7CBFCBDE842
:101AD00008402C20FFF7B8BC08BD0000001C0040E7
:101AE0004038024090F83D10012901D00120704794
:101AF000022180F83D100168CA6842F00102CA6004
:101B000000681149884214D0B0F1804F11D00F49BC
:101B100088420ED00E4988420BD00E49884208D028
:101B20000D49884205D00D49884202D00C498842AF
:101B300004D1816801F00701062903D0016841F052
:101B400001010160002070470000014000040040D6
:101B500000080040000C004000040140004001402B
:101B6000001800400168CA6822F00102CA600168DA
:101B70000A6A41F211131A4207D10A6A9B101A42EB
:101B800003D10A6822F001020A60012180F83D10A9
:101B900000207047704770B50446006801694FF037
:101BA0000005C943890715D4C168C943890711D401
:101BB000E91E0161012020772068806980072046A6
:101BC00002D0FFF7E7FF04E000F098F8204600F0AD
:101BD00096F8257720680169C943490717D4C16879
:101BE000C943490713D46FF0040101610220207733
:101BF0002068806910F4407F204602D0FFF7CAFFBA
:101C000004E000F07BF8204600F079F825772068A2
:101C10000169C943090716D4C168C943090712D429
:101C20006FF008010161042020772068C0698007F7
:101C3000204602D0FFF7AEFF04E000F05FF8204638
:101C400000F05DF8257720680169C943C90617D4FB
:101C5000C168C943C90613D46FF01001016108209F
:101C600020772068C06910F4407F204602D0FFF73B
:101C700091FF04E000F042F8204600F040F825779C
:101C800020680169C943C90708D1C168C943C907A8
:101C900004D1891E0161204600F032F820680169F4
:101CA000C943090609D4C168C943090605D46FF0C0
:101CB000800101612046FFF7C7FE20680169C94322
:101CC000490609D4C168C943490605D46FF04001EB
:101CD0000161204600F02AF820680169C94389069D
:101CE0000BD4C168C943890607D46FF02001016194
:101CF0002046BDE87040FFF7A8BE70BD7047704732
:101D000010B5044600680749884201D1FFF71AFB65
:101D100005492068884203D1BDE8104003F07EBB2E
:101D200010BD000000000140001C0040704770B56D
:101D3000040004D094F83D00002510B106E0012015
:101D400070BD84F83C50204600F022F8242084F82E
:101D50003D002068C16821F40051C160204600F0B8
:101D600097FC2068016921F4904101612068416974
:101D700021F02A0141612068C16841F40051C1602D
:101D80002564202084F83D0084F83E00002070BDCA
:101D900010B586B0044614216846FEF70CFC1449C1
:101DA0002068884221D113480021026842F01002C5
:101DB0000260006800F0100005900E4814380268B8
:101DC00042F001020260006800F0010005904FF44B
:101DD000C06000900220CDE901010320039007209C
:101DE000049069460448FFF7A9F906B010BD000049
:101DF000001001404438024000000240FEE70000AD
:101E0000104810B50E4901600321416000214FF0D8
:101E10008072C0E90212521102614FF44012426115
:101E2000017641768176C17601774177FFF751F8E7
:101E3000002803D0BDE81040FEF792BD10BD0000A1
:101E4000006400406807002030B597B00025129567
:101E500012A8139501F07CF9154C0121206114950D
:101E600014A8159501F07CF9124B60610EAD0FCBF3
:101E700085E80F0000210EA801F057F90D49E06038
:101E80001C2210316846FEF764FB0021684601F011
:101E900086F9084960601C222C3107A8FEF759FB1F
:101EA000002107A801F07BF9A06017B030BD000049
:101EB000E80300209461000870B586B014216846DC
:101EC000FEF779FB16480024016841F0200101600B
:101ED000016801F020010591016841F08001016075
:101EE000016801F080010591016841F00101016084
:101EF00000680C4E00F001004FF4C0650590002210
:101F000029463046FFF712FA01200095CDE9010479
:101F1000694630460394FFF711F906B070BD000022
:101F200030380240001402400B4810B509490160E6
:101F300053214160002140F2E732C0E90212016101
:101F40008161FFF783FD002803D0BDE81040FEF754
:101F500007BD10BD001C0040900700200C4810B5C4
:101F60000A4901604FF4E1314160002181600C2297
:101F7000C160C0E904128161C161FFF7D8FE002889
:101F800003D0BDE81040FEF7EBBC10BD00100140CF
:101F9000D8070020FEE7FEE710B503F07FF9002028
:101FA00010BD10B5044600F087FF204600F04AFF40
:101FB000002010BD10B5044601F084F8204601F061
:101FC00047F8002010BD0000D0F80812097869B960
:101FD00000210A4606E000BFD0F80C3243F8212069
:101FE000491CC9B290F805328B42F5D800207047E1
:101FF00030B401EBC102846802254FF0FF3305EBDA
:102000004205635300238468062505EB4202A35270
:1020100030BCC9B202F01CBF30B401EBC10284680D
:1020200004254FF0FF3305EB420563538368C9B2C3
:1020300013F8124024F0010403F8124030BC02F0FF
:1020400007BF00002DE9FC41064640694FF4C0552A
:102050000489B0690789C4B1DFF83C80BC4214D858
:1020600001AB6A462946304602F0E7FE009838B9CF
:10207000019828B1C0F80880C0F80C80C0F814801E
:102080006D1C641CADB2A4B2E8E73046BDE8FC416B
:10209000002100F00CBC0000912500082DE9F0475C
:1020A0000446406900260589A069B0F8088035BB60
:1020B000BDE8F087A16806EBC607022000EB4709E0
:1020C00031F90900FEF736FCA26822F80900A16880
:1020D000042000EB470931F90900FEF72BFCA26848
:1020E000761CF6B222F80900A1680020062201F849
:1020F0001700A16802EB47026D1C8852ADB245453E
:10210000D8D9D5E73EB50446D0F8A4000088A8B1D8
:1021100020686946007800F5E060ADF80000012015
:102120008DF8030000208DF8020094F878008DF8F7
:102130000400D4F8E00100F06DFD3EBD34F9A80FB5
:10214000FEF7F8FB20803EBD70477CB51D46144667
:1021500001AB6A4602F071FE009931B9019921B1D3
:102160000079A04201D941F8245000987CBD0000BC
:102170002DE9FC41054640690F464088002831D0D2
:1021800007EB870105EB0114A96994F82820498819
:102190001044884226D86968134E51F83000C06A4E
:1021A00090F800804FF0FF30A4F87200852084F88A
:1021B0002A0094F83200CDE90006238E94F8291005
:1021C000284602F019FFE662626F2AB141462846AE
:1021D0009047E06AB04205D1F9B22846BDE8FC411B
:1021E00002F012BEBDE8FC81000004051FB501EB42
:1021F000810100EB01114A6B0AB98A6B4A630392B1
:10220000012203ABCDE90032029201F13C0391F8C7
:102210003220098E00F0DAFB04B010BD70B501EB7E
:10222000810100EB01118C6BA018202801D9FF203F
:1022300070BD002006E026181D5C0E44401C86F888
:102240003C50C0B29042F6D3886B104488630020A3
:1022500070BD00002DE9F05F8B46214982460026C3
:10226000B1F900001C4691461C4D401C08E000BF1F
:10227000B9F1000F01D02A7852B1761C36B2183568
:10228000864201DC082EF3DB4FF0FF30BDE8F09F03
:102290008846864201D1A8F8000000F083FD074679
:1022A0004FF6FF7120468C4200D30846D8F8042030
:1022B000BA4207D9D21B824204D93A18C8F804207E
:1022C00002F0CAFFE019C5E903B0C5E901A90A98FF
:1022D0006861012028703046D8E70000544500208E
:1022E0007C04002030B5002341F21805441B136024
:1022F000A84230D014DC41F21205A0EB0504A8423C
:1023000022D008DCB0F5805F1CD06FF48052D04240
:1023100014D101202CE0012C18D0052C0ED117E08F
:10232000B4F5F47F19D0B4F5FD6F1AD0A4F510649C
:10233000E83C1AD0A4F5C064013C18D00F480860EE
:10234000002030BD002013E0022011E003200FE048
:1023500004200B4C03E005200AE00A4C0620146020
:1023600006E0084C07200C34F9E7082000E00920BB
:102370000B60054901EBC00030BD00000000020603
:102380006C00002084040020286100089F2803D1ED
:10239000087808B1014870470020704730000906EE
:1023A0000C4D0D4C00262888401C80B228806428E3
:1023B0000BD32E80D4F8A402C043C4F8A402D4F8EE
:1023C000A402C043C4F8A802EDE70A2000F0A1FE71
:1023D000E9E70000E80300200080424202F028BE46
:1023E00010B5502080F31188BFF34F8FBFF36F8F6C
:1023F00003F046FD18B104494FF0805008600020FA
:1024000080F3118810BD000004ED00E030B593B0FA
:1024100030216846FEF7CFF814210CA8FEF7CBF860
:102420001D480025016841F080510160006800F0FE
:10243000805011901948016841F4804101600068A2
:10244000022400F4804011900120009000040190CB
:102450008001CDE9064008AA0420A82182E81300E3
:102460000B906846FFF73AF908B172B6FEE70CA97F
:102470000F2081E831004FF4A0500F904FF48050AE
:10248000109005210CA8FFF71FF8002801D072B6A4
:10249000FEE713B030BD000040380240007000403D
:1024A0000248016841F470010160704788ED00E066
:1024B0000148FFF770BB00001C0800200148FFF72F
:1024C0006ABB000090070020F0B50268254C264D3D
:1024D000264E274F274B4FF0804CA04209D0604535
:1024E00007D0A84205D0B04203D0B84201D09842EC
:1024F00004D122F0700E4A6842EA0E02A0421BD0BC
:10250000604519D0A84217D0B04215D0B84213D0B8
:10251000984211D0184DA8420ED0184DA8420BD0A9
:10252000174DA84208D0174DA84205D0164DA84215
:1025300002D0164DA84203D122F44075CA682A433E
:102540004D6922F080022A4302608A68C2620A68EA
:102550008262A04201D0984201D109690163012140
:102560004161F0BD0000014000040040000800404F
:10257000000C0040000401400040014000440140C4
:102580000048014000180040001C004000200040AE
:102590002DE9F041044690F87E0048B3022A03D0AA
:1025A000032A01D0052A23D16269A088127A00EBA0
:1025B000C200081AC0F3C705A16805EBC5060220D2
:1025C00000EB4607C85FFEF7B5F9A168C853A168DC
:1025D000042000EB4607C85FFEF7ACF9A168C853BA
:1025E000A168002001F8160029462046FFF700FDEB
:1025F0000020BDE8F08100002DE9F0414FF6FF74A6
:1026000000F0D0FB204D02466868831800211F4867
:1026100015E00678F6070FD006699E421DD8466978
:10262000C6B1B2FBF6F706FB1727F61B03270661B8
:102630000770A64200D23446491C09B21830B5F9D9
:102640000060B142E5DD20466C6002F005FE002628
:102650000E4C13E002260670EEE7F61A0661E8E774
:102660002078810707D520F002002070A26812B1FF
:10267000E16860689047761C36B21834B5F90000FE
:102680008642EDDDBDE8F0817C0400205445002049
:1026900070B5044600680169E26821F440511143B5
:1026A00001612169A068E269084361691143084337
:1026B0002168CA6849F20C639A430243CA602068E1
:1026C0004169A26921F44071114341613149206897
:1026D000884202D03049884202D1FEF7BFFF01E0B4
:1026E000FEF7ACFFE2690023192164253226B2F51A
:1026F000004F626828D0A0FB0101930F9200FDF704
:1027000034FE0146B0FBF5F06FF01802504301EBC8
:10271000800006EB0010B0FBF5F000F0F002B1FB1A
:10272000F5F002EB0012B1FBF5F06FF0180358431F
:1027300001EB800006EB0010B0FBF5F000F00F009D
:1027400021681044886070BDA0FB010192185B41B4
:10275000FDF70BFE0146B0FBF5F00201B1FBF5F011
:102760006FF01803584301EB800006EBC000B0FB8C
:10277000F5F000F0F80002EB4002B1FBF5F0584331
:1027800001EB800006EBC000B0FBF5F000F00700A5
:10279000D6E700000010014000140140FEE770473A
:1027A0000907090E002804DB00F1E02080F800147E
:1027B000704700F00F0000F1E02080F8141D704712
:1027C0002DE9FC411C468C46DDE908581746D0F837
:1027D000E4310A9E01AA694660469847009911B102
:1027E0000846BDE8FC810179B94201D82448F8E7E0
:1027F00007EB470136B1026812F82120D20701D059
:102800002048EEE75CB10422066802EB8102D5F8AD
:1028100000C0B358634505D91B482B60E1E74FF072
:102820000060DEE7012303EB8101735C88F8003070
:1028300000680821092B865807EB470201EB82014B
:1028400006D0415832462046FDF73EFE2E6014E089
:1028500040582A68014602B93246024403E000BFEC
:1028600004F8013B401C03780BB19042F8D3411AA5
:102870002960B14201D2002101700020B1E70000BF
:1028800011000906010001060500040570477047A4
:102890007047704770477047704770477047016ACC
:1028A0000978002902D1812200F0BEBB70472DE9D2
:1028B000FE4F04464069002589460689A0690789BC
:1028C00094F87E0000280ED0002E6AD0A846CDF8DD
:1028D0000080CDF80480CDF8088060E005286ED037
:1028E0000B2858D0FF20BDE8FE8F606850F83600F6
:1028F00041690968002901DA0B2024E0006AB9F176
:10290000000F23D00178E9B3F02925D8A26805EBA0
:10291000C50112F811305B1CDBB202F811300278ED
:10292000934219D1A268204602F81180CDF80080A8
:10293000CDF804806A462946CDF8088000F0C1F839
:102940000028D9D10520BE42C8D92AE00078FF2846
:1029500029D0FE2827D01CE00078FC2818D105EBF0
:10296000C50A0622A16802EB4A000A182946204639
:1029700000F0A7F80028A06810F81A1003D021F082
:10298000010202E016E041F0010200F81A20B3E76C
:1029900080B1BE4205D86D1C761CEDB2B6B2BE4207
:1029A000A3D900209FE7A06805EBC50110F811002E
:1029B000C007EDE72946204602F04AFA9CE76A463E
:1029C0002946204602F0C8FA96E700002DE9FF4F9D
:1029D00083B09146DDE910758246D0F8E43101AA52
:1029E00069460498984704460098002803D1217945
:1029F000494503D82E4807B0BDE8F08F09EB4906DA
:102A000025B1206810F82600022811D00121206885
:102A100001EB860110F80180042101EB8601455885
:102A2000386848B1A84207D0B8F1090F02D03BE09E
:102A30002048E0E7A84237D2DAF824204046069939
:102A4000904700900028D6D10820216800EB860B23
:102A50003A6851F80B000699FDF736FDB8F1090FF9
:102A600007D13868A84204D22368002253F80B101B
:102A70000A543D60019850B150F82930494633B1AD
:102A80000A4621465046984700900028B3D1206856
:102A900010F82600400705D5DAF8E83150464A46D6
:102AA000049998470020A6E703483D60A3E700008B
:102AB0001100090602000106100007067047704762
:102AC00070472DE9F04F4369834691461889DBF83A
:102AD0000420C00000EBC1045B89A058DB0003EBBD
:102AE000C1018F184069396889B00088D1F808A001
:102AF0000026C0F30A01A9F80010354689F80260E3
:102B000000200490059006EB46021423396803EB7D
:102B100082028A581368190C13F0FF042ED02B1967
:102B20000793402B2AD8A4F1010C012303EBDC0C02
:102B3000CDF818C01288CDE902030DF1200C0DF17B
:102B40001808CDE9008CC2F3072204AB5846FFF702
:102B500037FE18B1FF2009B0BDE8F08F09EBD502B0
:102B6000121D0092002005F00701CDE9011000239D
:102B700020461A4604A9FDF78BFE079D761C9AF89D
:102B80000000F6B2B042BBD801206D1E00EBD500AC
:102B900089F803000020DEE730B40A88D3090F2B40
:102BA00035D2DFE803F02D08341818181818181853
:102BB000181F1F342600802A06D090F87B20002A98
:102BC00025D030BC00F015BB90F87C1000291ED039
:102BD00030BC01F02BBE90F87E20002A17D030BC0C
:102BE00000F0DEBB90F87A20002A10D030BC00F054
:102BF000EBBC90F87D20002A09D030BC00F056BB19
:102C0000026A1278002A02D030BC00F003BB30BC4C
:102C1000704700003EB50020114A02900C88C2E9BE
:102C2000004090608B78D360CB7813616A4604E0F3
:102C30000B181B791354401CC0B2CB788342F7D8D1
:102C400002AB07490748FDF7D0FE08B101203EBDA1
:102C50000448FEF72AF80328FAD100203EBD000000
:102C6000500700206807002010B5144C1249206856
:102C7000C0F8AC10124940F8801F12494160124957
:102C800081601249C1601249C0F84C111149C0F865
:102C900050111149C0F868111049C0F8B811104816
:102CA000FEF720FF0421206802F0DEF900212068F1
:102CB00002F080FA002010BDEB07000800000020A1
:102CC000ED07000821080008F9070008450800087A
:102CD0001D08000819080008610800081B08000802
:102CE0009007002010B50446054B002241F2030175
:102CF000FFF72BFAD4F808120020087010BD00006E
:102D0000C91F000870472DE9FE439946DDE90A76A0
:102D100015468846044602AB00F06BF850BB012D07
:102D200004D19DF80810204602F06EF8022D21D142
:102D30009DF8080000EB800004EB0010B0F9720071
:102D4000FDF7F8FD9DF8081001EB810104EB01117E
:102D5000A1F872009DF80810852001EB810104EBB9
:102D6000011181F82A009DF8080000EB800004EBB7
:102D70000010C662CDE900764B4642462946204601
:102D800002F03AF9002800D0FF20BDE8FE830000E1
:102D900003490A685206FCD5C2B24A607047000077
:102DA00000100140044AD1681068884201D8926836
:102DB0001044401A70470000D403002000680078D7
:102DC000704710B5002303EB830400EB041494F860
:102DD0002A402CB15B1C13F0FF03F4D0FF2010BD80
:102DE000137003EB830200EB021080F8291000201F
:102DF00010BD70B5002404EB840500EB051595F8B3
:102E00002A606EB1852E0BD095F828608E4207D1CE
:102E100095F82950954203D103B11C70002070BD74
:102E2000641C14F0FF04E6D0FF2070BD01EB8101AB
:102E300000EB0111486B08B1896B401A106000204B
:102E400070470000F8B50546184B002241F2170103
:102E5000FFF77BF9002685F8DC61344613E000BFFC
:102E6000D5F89C0030F8240003041B0C09D0104A4C
:102E7000214628460096FFF7EDF9D5F8A01021F875
:102E80001400641CE4B2D5F898000078A042E7D89A
:102E9000D5F8A4000388002B07D0064A0021284655
:102EA0000093FFF7D7F9A5F8A800F8BDA31F000805
:102EB000650800080521000870B5054600240BE0F0
:102EC000D5F8A00030F91400FDF734FDD5F8A010B6
:102ED00021F81400641CE4B2D5F898000078A042F0
:102EE000EED835F9A80FFDF725FD288070BD00004C
:102EF0002DE9F8431746DDE90896002501EB81022C
:102F0000984600EB0214022E2DD0032E2BD0042E57
:102F100029D0052E27D0B4F97200FDF70BFD00BFB4
:102F2000A4F8720084F82870A4F8308084F83290F5
:102F300084F82A6084F82B506563A56384F85C509C
:102F400084F85D5084F85E50256684F8645084F8F7
:102F5000655084F8665084F8675084F870500020FB
:102F60006567BDE8F88340F6B833024A0095FFF77D
:102F700071F9D5E77121000810B50446FFF762FF2B
:102F80002046BDE8104000F063B810B50446FFF7D6
:102F900093FF2046BDE8104000F094B830B501EB37
:102FA000810100EB01118C6BA018202802D84D6B19
:102FB000A84201D9FF2030BD002006E025180D44AD
:102FC00095F83C501D54401CC0B29042F6D3886B1B
:102FD00010448863002030BDFEF7BCF9FFF716FAF5
:102FE000FEF76AFFFEF70CFFFEF7B8FFFEF79CFF47
:102FF000FEF72AFF00F094F8FEE70146002084293E
:1030000000D0C81C70470EB541F4E061ADF8001067
:1030100001218DF8021000218DF80310D0F8E00195
:103020006946FFF7F7FD0EBD0EB50023ADF8003081
:103030008DF802308DF8042002238DF805108DF8EC
:103040000330D0F8E0016946FFF7E4FD0EBD000053
:1030500038B50446194B002241F20C01FFF775F810
:10306000164B002241F20D012046FFF76EF8D4F80E
:1030700038010388002B1FD0D4F83C0100780028C9
:103080001AD00F4A002120460093FFF7E3F8A4F876
:1030900030010020211891F8B0200F2A08D02268B2
:1030A0001278824204D0D4F83C21127881F8402171
:1030B000401CC0B28028EDD338BD0000B51F000809
:1030C0006509000810B50446B0F93001FDF732FC7F
:1030D000A4F8300110BD10B586B0202204AC0492D3
:1030E0000094012205ABCDE9013201EB810100EB37
:1030F0000114039204F13C0394F83220218EFFF76F
:103100005FFB002803D1049860630020A06306B031
:1031100010BD10B500B9012002F084FA002010BDE6
:1031200010B502F0CBFA002010BD38B5D0E901127D
:1031300004683AB1C3682BB100200090204602F029
:10314000DCFB38BD2046BDE83840002202F0B4BBAD
:1031500041684FF0010009B102F0A1BB02F094BB3D
:1031600038B543684BB1012909D1032000220090F2
:103170001146012002F0C1FB38BD012901D0002019
:1031800038BD03220021012002F096FB040004D088
:1031900000231A46194602F027FC204638BD7FB5A9
:1031A0000D4604464169B0F9080081B1A16971B1C9
:1031B000FFF723FFD4E905128DE80700D4E90010DA
:1031C0002B46226902F023FE039004B070BDFFF786
:1031D00014FF03A9CDE90001208A2B4682B2D4E96D
:1031E000001002F0E7FD012801D00020EDE7039870
:1031F000EBE730B4CA78082A0AD10A78D0F8384206
:1032000002F07F058A888B792946A44630BC604746
:1032100030BC704770B5044690F878007F2803D022
:10322000052801D004283FD14A791AB123681B78B8
:103230009A4239D10979802925D009DC01291CD08D
:10324000022931D17F2801D005282DD1042126E083
:1032500081291ED0822927D12046FFF7AFFDD4F85F
:103260009410054609B1204688472168FF20087060
:103270002946204601F0F8FE10E07F2801D00428FE
:1032800012D105210BE0052801D004280CD17F21A3
:1032900005E0D4F8901009B1204688470021204667
:1032A000BDE8704001F086BF70BD00002DE9FE430F
:1032B000044608784FF0000800F07F06887801285F
:1032C00018D00879A51900F07F07D4F83C010078E0
:1032D00085F8400195F8B000B84207D0D4F8D8314D
:1032E0003A4631462046984785F8B07095F8B000C8
:1032F00028B329E020680078B0421ED100F5E060D4
:10330000ADF8000001228DF803208DF8028094F8BA
:1033100078108DF8041094F8DC31404633B141F058
:1033200080018DF8041084F8DC0101E084F8DC21D0
:103330006946D4F8E001FFF76DFCBDE8FE83D4F8E0
:10334000D42131462046904795F8B0000F28F4D09C
:1033500000251CE0D4F89C0050F82500C0F307417C
:103360008E4212D187B2D4F8A00030F91500FDF7D3
:10337000E1FA3B46094A29462046CDF80080FEF78F
:1033800069FFD4F8A01021F815006D1CEDB2D4F837
:1033900098000078A842DDD8CFE700006508000853
:1033A0002DE9F04F894604460223002199F80200D6
:1033B00091B00D4610B101287DD09CE06769A269EB
:1033C000B888928820B996E0022B04D0042B0FD045
:1033D0009042F9D98FE0B9F80060636853F830C0C3
:1033E000DCF814C0BCF800C0B4450CD1904210D831
:1033F000FF886268F80000EBC50B002652F80B004E
:10340000D0F808804AE06D1C401C80B2EDB29042BA
:10341000E4D970E0002209920A9263684FF0140C1C
:1034200053F80B0006EB46030CEB8303C0585FEA2E
:10343000000A64D09AF8000010F0FF0005902BD02D
:1034400008440F9099F80330B0EBC30F24D8002044
:1034500009AACDE9002001F0070209EBD1010346DA
:103460000290091D0598FDF713FA05990120491EE0
:1034700000EBE1010E910EAA00210092CDE90110AE
:10348000DAF8000009ABC0F30722010C2046FFF771
:103490009DFAA0BB0F98C1B2761CF6B298F8000056
:1034A000B042B7D8E06830B3616851F83710496C62
:1034B0000E8806B300E00FE030F91500FDF73AFA88
:1034C000002000903346294620462269FEF7C2FEBE
:1034D000E16821F815000EE06069A2690121008908
:1034E000128930B907E001290AD004291BD0052927
:1034F0003CD09042F7D9002011B0BDE8F08F3BE0FE
:10350000B9F80030D4F8041051F830607669368884
:103510009E4201D1042116E06D1C401C80B2EDB228
:103520009042F1D9E7E7616851F83010096A0B78E9
:10353000FD2B07D0D9B2FC2908D0FF291ED0FE29C7
:103540001CD019E005219042CFD9D4E7A16805EB42
:10355000C50311F81360F60706D0062000EB430000
:103560000144D4F8E0012CE09042C4D86A462946D0
:103570002046FFF7A6FA08B3FF20BDE7A16805EBD8
:10358000C506022000EB4607C85FFDF7D3F9A16826
:10359000C853A168042000EB4607C85FFDF7CAF9CD
:1035A000A168C853A06810F8161021F0010100F8B6
:1035B000161029462046FEF71BFD9CE76946D4F805
:1035C000E001FFF727FB96E72DE9F04F8DB00446A9
:1035D00000200C906569A3690E4628881A8800218E
:1035E000D8B14FF0040C904217D867680CEBC008B4
:1035F00017F80880B8F1010F75D957F83070B6F890
:1036000000807F693F68474502D10127039121E08F
:10361000491C401CC9B280B2E5E768885A8800217D
:10362000002860D0042390425DD8656803EBC00792
:10363000EF5D032F57D955F8305037882D6A2D6824
:10364000BD4212D103916168022751F83000C06A6F
:1036500000780C90F07800254FF00069082809D018
:10366000CDE9005900233A4690E0491C401CC9B2FC
:1036700080B2D8E702AB3A4620460399FFF7B9FB80
:10368000C8B9012F02D0022F0BD014E09DF808100A
:1036900001EB810104EB011191F82A1004291DD0DE
:1036A00009E09DF8081001EB810104EB011191F88C
:1036B0002A10052912D031794909DFF84484DFF84E
:1036C00044A406F108020DF1180B0B92072961D2F0
:1036D000DFE801F00AFEFDFC86FBFA003179802963
:1036E0007ED00621E9E755E0012F02D0002878D0EE
:1036F0004AE0E0BB9DF8080000EB800004EB0010FE
:1037000090F82A1002293FD1B0F97200411C1AD05A
:10371000FDF710F99DF8081040F6B83301EB810170
:1037200004EB0111F84AA1F8720000959DF8081009
:103730002046FEF78FFD9DF8081001EB810104EB98
:103740000111A1F872009DF8080000EB800004EB65
:103750000010018E059190F8328090F82B1030798E
:10376000C0F3001291427CD1C0F3420000E00BE0B4
:10377000C0F10702731D09929DF808102046FEF75C
:103780004DFD00286ED10BE00023E2E320460399B3
:10379000FFF7B9FA0DB0FF20BDE8F08F059BFDE300
:1037A0009DF80800202100EB800004EB001090F849
:1037B0002B0041EA00108DF81800012059460D54E5
:1037C000401C0828FBD306AB39462046039A01F07B
:1037D000D7FB9DF8080000EB800004EB001001E02F
:1037E00090E316E090F82B1071B1002180F82B10B7
:1037F0003079C0076DD09DF808102046FEF7F6FC22
:1038000020B1CDE90080C9E70121EFE79DF808105C
:10381000FDE39DF8080000EB800004EB001090F839
:103820002A100329B0D1B0F97200411C1DD0FDF758
:1038300081F89DF8081040F6B83301EB810104EBE4
:103840000111B14AA1F8720000959DF808102046B8
:10385000FEF700FD9DF8081001EB810104EB01115A
:1038600001E091E091E0A1F872009DF8080000EB02
:10387000800004EB0010018E059190F8328090F8E2
:103880002B103079C0F3001291427DD1C0F3420079
:10389000C0F10702731D09929DF808102046FEF73B
:1038A000BDFC002871D19DF8080000EB800004EBFE
:1038B000001191F82B0000B35FF0000081F82B009D
:1038C0003179C9071BD005E0FEE357E321E225E18A
:1038D00021E01EE39DF8080000EB800004EB0010DF
:1038E000B0F97200FDF726F89DF8081001EB810190
:1038F00004EB0111A1F87200DFE10120DEE7602195
:1039000041EA00108DF81800012059460D54401C62
:103910000828FBD352E2012F62D000287FF4E8AEE2
:103920009DF8080000EB800004EB001090F82A10CE
:103930000229F3D1B0F97200411C1AD0FCF7FAFF4A
:103940009DF8081040F6B83301EB810104EB01113A
:103950006D4AA1F8720000959DF808102046FEF708
:1039600079FC9DF8081001EB810104EB0111A1F82D
:1039700072009DF8081001EB810004EB0010028E2C
:10398000059290F8328001E085E098E0327990F875
:103990002B00C2F3001290427DD109AA2046FFF706
:1039A00045FA099800288ED007289DF8080000EBFA
:1039B000800004EB001191F82B006DD9E8B30020D2
:1039C00081F82B0000018DF818009DF808100BF10C
:1039D000010307222046FFF7E1FA00286FD1EDE14D
:1039E000B6F80510059196F807A040B102AA39462D
:1039F0002046FFF7E6F928B1CDE900A8CEE6CDE9EB
:103A000000A8CBE60220CDE900A09DF808102046D2
:103A1000059B039AFFF76CFA30794108C90724D057
:103A20009DF80810C0F3810001EB8101C0F1040092
:103A300004EB01110990486300E045E09DF808108F
:103A400020460B9B099AFEF7E9FB08BB9DF808107E
:103A50002046FEF7CBFB10B1CDE900A09EE69DF815
:103A60000810204601F0D0F917E0C00715D0307AD1
:103A7000717AF27A00EB0120B17A090401EB02615C
:103A8000421809929DF80810204601F087FB20B1EA
:103A9000CDE900A982E6CEE118E060208DF818009B
:103AA00005988DF81900000A8DF81A008DF81BA0F2
:103AB000042059460D54401C0828FBD37EE199E0B0
:103AC00020460C99904724E2012079E7A8B1002014
:103AD00081F82B00099A0001C2F1070340EA430074
:103AE000401C8DF818009DF808100BF101032046CA
:103AF000FFF754FA00287DD108E00120E8E7000034
:103B000021000008000003057121000859460998AA
:103B100000E00D54401C0828FBD34FE1012F46D094
:103B200000287FF4E5AD9DF8080000EB800004EB71
:103B3000001090F82A100329F3D1B0F97200411C4B
:103B40001AD0FCF7F7FE9DF8081040F6B83301EBE9
:103B5000810104EB0111FF4AA1F8720000959DF864
:103B600008102046FEF776FB9DF8081001EB810156
:103B700004EB0111A1F872009DF8080000EB800031
:103B800004EB0010B0F830A090F832803079410892
:103B9000C9076ED0C0F38100C0F1040209929DF8FC
:103BA000081020460B9BFEF739FBE0BB6BE0B6F834
:103BB0000510F6798A4650B102AA39462046FFF729
:103BC00000F930B15346CDE900683A46DEE50B46D0
:103BD000F9E70320CDE9006053469DF80810204620
:103BE000039AFFF785F99DF808102046FFF773FA4E
:103BF00030B100E05BE1CDE9006053463A46C5E5EF
:103C000009AA9DF808102046FFF710F9099A042A1E
:103C100016D941208DF818008DF819A04FEA1A2006
:103C20008DF81A0000E065E08DF81C20100A8DF870
:103C30001D00100C8DF81E008DF81B60100E1DE28B
:103C4000C2F10400432141EA80008DF818008DF88C
:103C500019A04FEA1A208DF81A008DF81B600BF19D
:103C600004039DF808102046FFF798F910B1534659
:103C70003CE12CE009985946001D01E00D54401C20
:103C80000828FBD31DE19DF8080000EB800004EB41
:103C90000010B0F97200FCF74DFE9DF8081001EB22
:103CA000810104EB0111A1F872009DF80810099838
:103CB00001EB810104EB011148639DF8081001201C
:103CC00001EB810104EB011181F82A004BE1C007EF
:103CD00015D0307A717AF27A00EB0120B17A0904BA
:103CE00001EB0261421809929DF80810204601F08C
:103CF00055FA20B153463A46CDE9008946E56020A1
:103D00008DF81800012059460D54401C0828FBD39B
:103D100054E0012F53D000287FF4EAAC9DF808004E
:103D200000EB800004EB001090F82A100229F3D178
:103D3000B0F97200411C1AD0FCF7FCFD9DF8081088
:103D400040F6B83301EB810104EB0111814AA1F87F
:103D5000720000959DF808102046FEF77BFA9DF84A
:103D6000081001EB810104EB0111A1F872009DF82C
:103D7000081009AA01EB810004EB0010B0F83080B4
:103D800090F832602046FFF751F8099A002A3FF474
:103D90009AAD9DF80810072A01EB810004EB001092
:103DA00090F82B004FEA001071D98DF818000BF134
:103DB000010307222046FFF7F1F8E8BBACE2002838
:103DC000AAD19DF8080000EB800004EB001090F8E9
:103DD0002A100329A0D1B0F97200411C1AD0FCF7B7
:103DE000A9FD9DF8081040F6B83301EB810104EB02
:103DF0000111584AA1F8720000959DF8081020465C
:103E0000FEF728FA9DF8081001EB810104EB01117F
:103E1000A1F872009DF8081001EB810004EB00107E
:103E2000028E059290F83280327990F82B00C2F31E
:103E30000012904204D000E057E0CDE9008AADE4E2
:103E400009AA2046FEF7F2FF9DF80810099A01EB37
:103E5000810004EB0010072A90F82B004FEA0010B5
:103E600018D98DF818000BF1010307222046FFF73F
:103E700095F8E0B99DF8080000EB800004EB001015
:103E800090F82B1021B1002180F82B1044E21FE0A4
:103E90000121F9E7C2F1070340EA4300401C8DF815
:103EA00018000BF101032046FFF778F810B1CDE9B7
:103EB000008973E45946099800E00D54401C082815
:103EC000FBD306AB39462046039A01F059F89DE42E
:103ED000C2F1070340EA4300401C8DF818000BF1C3
:103EE00001032046FFF75AF820B14346CDE90069A7
:103EF0003A464BE45946099800E00D54401C082806
:103F0000FBD3FAE3F17AB568012F61F31F6501D0A5
:103F100018B151E20028DAD04EE29DF8080000EB1B
:103F2000800004EB0010B0F97200FCF703FD9DF86F
:103F3000081001EB810104EB0111A1F872009DF85A
:103F40000810802001EB810104EB011181F82A00A7
:103F500002E041E0712100089DF8080000EB8000BC
:103F600004EB0010C5629DF8080000EB800004EB34
:103F70000010426F002A7FF4A3AD1DE23179012FBA
:103F800001F0030A0DD0BAF1000F7AD0BAF1020F96
:103F900077D0BAF1010F3FF496AC00E078E3FFF779
:103FA000F3BBBAF1000F09D0BAF1010F6CD0BAF12E
:103FB000020F79D0BAF1030F76D0FDE1B6F8051003
:103FC000F579894638B102AA39462046FEF7F9FE4E
:103FD00030B14B4600E00B46CDE900583A46F5E5D6
:103FE0000520CDE900504B469DF808102046039A65
:103FF000FEF77EFF9DF80810307901EB810104EB9C
:104000000111C0F3800081F85C00307A00E047E0E5
:104010009DF8081001EB810104EB011181F85D00AE
:104020009DF808102046FFF756F820B1CDE9005062
:104030004B463A46CAE509AA9DF808102046FEF705
:10404000F5FE9DF80810099801EB810104EB0111C0
:104050000866C2208DF818008DF819904FEA1920D3
:104060008DF81A0009988DF81C00010A8DF81D10B2
:10407000010C8DF81B508DF81E10000E8DF81F00DE
:104080003BE3D2E000E00FE0002888D19DF8081063
:1040900001EB810004EB001090F82A000528F4D110
:1040A000204600F0B1FE8CE30028EED19DF8080018
:1040B00000EB800004EB001090F82A100529E4D1F1
:1040C000B0F97200411C00E0A0E11AD0FCF732FC0C
:1040D0009DF8081040F6B83301EB810104EB0111A3
:1040E000FF4AA1F8720000959DF808102046FEF7DF
:1040F000B1F89DF8081001EB810104EB0111A1F862
:1041000072009DF80800BAF1020F00EB800004EB8A
:104110000010018E059190F8321008913BD1B179D1
:1041200080F85D10707909AA00F07F039DF80810EF
:104130002046FEF77BFE0998B8B99DF8080000EB11
:10414000800004EB001090F8651099420DD190F8B2
:104150006610C12040EA81008DF818000120594600
:104160000D54401C0828FBD3C7E29DF80800C3EBA0
:10417000C30200EB800004EB001191F864001044CE
:1041800088639DF8081001EB810104EB0111496B74
:1041900088423FF604AF9DF80800012600EB80003E
:1041A00004EB001090F8381080F864101EE000BF97
:1041B00080F8656009AA9DF808102046FEF736FED3
:1041C000099807281DD98DF818600BF10103072203
:1041D0009DF808102046FEF7E1FEE0BB06AB39462D
:1041E0002046039A00F0CCFE761CF6B29DF808003B
:1041F00000EB800004EB001090F85D10B142D7D2C4
:10420000DFE246F080008DF818005E46731C9DF8D2
:1042100008102046099AFEF7C1FEE0B9099800E0AF
:104220003554401C0828FBD3DEE000287FF4B7AEED
:104230009DF8080000EB800004EB001090F82A10B5
:104240000429F3D1B0F97200411C1CD0FCF772FBB9
:104250009DF8081000E099E001EB810104EB0111E9
:1042600040F6B833A1F872009D4A00959DF80810F9
:104270002046FDF7EFFF9DF8081001EB810104EBEC
:104280000111A1F87200BAF1000F14D09DF80810C6
:10429000B07901EB810104EB011109AA81F85D00FD
:1042A00070799DF8081000F07F032046FEF7BEFDF0
:1042B0000998D0B131E09DF8080000EB800004EBD4
:1042C0000010018E059190F8321008913179C1F3F8
:1042D000800180F85C109DF80800317A00EB8000C6
:1042E00004EB001080F85D102DE09DF8080000EB55
:1042F000800004EB001090F8651099420DD190F801
:104300006610C12040EA81008DF81800012059464E
:104310000D54401C0828FBD3EFE19DF80800C3EBC7
:10432000C30200EB800004EB001090F8641011440D
:1043300081639DF8080000EB800004EB0010406BE7
:1043400081423FF62CAE9DF80800012600EB80006C
:1043500004EB001090F8381080F8641022E000BFE1
:1043600080F8656009AA9DF808102046FEF75EFDFA
:104370000998072821D98DF818600BF1010307224D
:104380009DF808102046FEF709FE18B10899CDE9FE
:10439000001954E506AB39462046039A00F0F0FDBB
:1043A000761CF6B29DF8080000EB800004EB0010CC
:1043B00090F85D10B142D3D203E246F080008DF850
:1043C00018005E46731C9DF808102046099AFEF7F7
:1043D000E5FD18B10898CDE9000930E5099800E03D
:1043E0003554401C0828FBD306AB39462046039AB7
:1043F00000F0C6FD9DF80810099801EB810104EB5F
:104400000111C0F1070081F86600DAE14FF0100AEF
:10441000012F35D000287FF4C2AD9DF8080000EBD5
:10442000800004EB0010B0F97200411C1AD0FCF7B8
:1044300081FA9DF8081040F6B83301EB810104EBD6
:104440000111274AA1F8720000959DF80810204636
:10445000FDF700FF9DF8081001EB810104EB01114D
:10446000A1F872009DF8081001EB810004EB001325
:1044700093F8670098B301287DD002287CD0A0E192
:1044800080B3307910F0010FC5D1B6F805B096F8B9
:10449000079002AA39462046FEF793FC20B1CDE9E9
:1044A00000985B463A4629E40420CDE900905B463B
:1044B0009DF808102046039AFEF71AFD9DF8081093
:1044C000012001EB810104EB011181F867003079D3
:1044D0009DF80810C0F3800001EB810103E0DEE0ED
:1044E000712100082BE004EB011181F85C003079A8
:1044F000800710D5307A717AF27A00EB0120B17A18
:10450000090401EB026108449DF8081001EB8101E8
:1045100004EB01110866A0208DF818008DF81CA08E
:104520008DF819B04FEA1B208DF81F508DF81A0036
:104530008DF81E508DF81B908DF81D50DDE09DF814
:10454000080000EB800004EB001090F867100129D0
:1045500002D002293CD034E1B0F97200411C1DD0D8
:10456000FCF7E8F99DF8081001EB810104EB01115B
:10457000A1F8720001E0C7E027E140F6B833AA4A8B
:1045800000959DF808102046FDF764FE9DF8081080
:1045900001EB810104EB0111A1F87200307900F008
:1045A0007F0800069DF8080000EB800004EB001077
:1045B00090F8651001F1010105D541456DD1022149
:1045C00080F86710AEE0414568D180F86580E2E090
:1045D0003179C9073FF4E3ACB0F97200411C1AD03D
:1045E000FCF7A8F99DF8081040F6B83301EB8101FB
:1045F00004EB01118C4AA1F8720000959DF8081097
:104600002046FDF727FE9DF8081001EB810104EB21
:104610000111A1F872009DF80810307901EB8102B8
:1046200004EB0213C0F38200C0F107022046693395
:10463000FDF7F4FD80BB9DF8080000EB800004EB63
:104640000010016E11B1826B91427DD1A1208DF8D5
:104650001800012059460D54401C0828FBD306AB16
:1046600039462046039A00F08BFC9DF8081020463E
:10467000FDF7BCFD00283FF42AAC9DF8081001EBC3
:10468000810104EB011191F83220CDE900200B8E5D
:1046900000E0038E3A462CE485E057E08EE0307966
:1046A000C00730D1012083F867009DF808103079E9
:1046B00001EB810104EB0111C0F3800081F85C0083
:1046C0003079800710D5307A717AF27A00EB0120C8
:1046D000B17A090401EB026108449DF8081001EB6E
:1046E000810104EB01110866A3208DF81800012058
:1046F00059460D54401C0828FBD306AB39462046CA
:10470000039A00F03DFC5CE0307900F07F08000681
:1047100093F8650000F1010039D5404516D102201B
:1047200083F867009DF8081001EB810104EB01118B
:1047300081F865809DF80800716800EB800004EB4B
:1047400000108166B16800E058E0C166A2208DF8D3
:1047500018009DF8080006AB00EB800004EB001089
:10476000394690F865008DF819008DF81AA0079564
:104770008DF81B502046039A00F002FC9DF80800BB
:1047800000EB800004EB001080F8655019E0404514
:1047900014D183F86580731D07229DF80810204608
:1047A000FDF73CFD50B19DF8080000EB800004EBE4
:1047B000001090F83220CDE900296AE7B8F1100F17
:1047C000C4D00DB00020BDE8F08F3079C2073EF4B0
:1047D000DBAFC0F38200C0F1070220466933FDF76A
:1047E0001DFD0028DFD19DF8080000EB800004EBE0
:1047F0000010016E39B1826B914204D090F83220E2
:10480000CDE9002845E7A1208DF818000120594680
:104810000D54401C0828FBD306AB39462046039AAA
:1048200000F0AEFBFFF74FB87121000870B5D0F86B
:10483000CC110446884794F87E00002809D0012155
:104840002046FEF734F80546D4F8D01120468847B4
:10485000284670BD2DE9F041184C0F460546E66824
:104860002068001D00F0ECFD38B9206890F82C108D
:1048700001208840216981432161681C07D137B13B
:104880002168BDE8F0410E48091D00F01DBE2068FA
:104890003544B5424560216805D2A06BBDE8F041C2
:1048A000091D00F0F9BD606B091D00F0F5FDA06A5F
:1048B000854200D2A562BDE8F0810000140400200A
:1048C000400900202DE9F041054600F009FE2E4C7C
:1048D000A068401CA06020682C4F10B1606940B3F4
:1048E0002DE02560A068012829D1002606EB86006E
:1048F00007EB800000F0C2FD761C072EF6D323489C
:104900008C3000F0BBFD2148A03000F0B7FD1F48FF
:10491000B43000F0B3FD1D48C83000F0AFFD1B48B7
:10492000DC3000F0ABFD19488C3060631430A063BC
:1049300005E02068E96AC06A884200D82560606A9C
:10494000401C6062E96A01202269884010432061AE
:1049500001EB810007EB8000291D00F0B5FD00F0A0
:10496000DFFD606900280CD02068E96AC06A8842CF
:1049700007D207494FF080500860BFF34F8FBFF355
:104980006F8FBDE8F081000014040020640800204F
:1049900004ED00E030B4026C0B46002A0BD0C16875
:1049A0001144C1608468A14201D30168C16030BC78
:1049B0001846FBF789BD30BC70472DE9F041856B87
:1049C000174604460026026C82B1C7B1E068FBF7C7
:1049D0007BFDE168206C091AE1602268914202D2F5
:1049E000A168081AE060022F16D017E02068A8B965
:1049F000A06801F0ABFA06460020A0600EE06068F7
:104A0000FBF762FD216C606808446060A168884221
:104A100004D32068606001E005B16D1E6D1CA563C4
:104A20003046BDE8F08110B5044690F8510058B109
:104A300001280CD002280FD0502080F31188BFF33A
:104A40004F8FBFF36F8FFEE7206B00F07DFD204698
:104A5000BDE8104000F078BD10BD000010484FF4D4
:104A60007051420706D0C01D0D4920F00700411AC1
:104A7000C1F570510B4A00230144C2E90003083913
:104A8000183A21F0070111604B600B600B1AC0E966
:104A9000001393604FF00040536050617047000076
:104AA0005409002068040020144E154CA6F1C807D4
:104AB0004FF08058DFF84C9012E000BF00F010FD7E
:104AC000F068C568281D00F0BBFCA068401EA0600F
:104AD0006068401E606000F023FD2846FFF7A3FFDA
:104AE00060680028EAD138680128F9D9C9F800803F
:104AF000BFF34F8FBFF36F8FF2E700002C09002048
:104B00001404002004ED00E0002807D0002181609B
:104B100001600B460A46C16000F066BF704703465D
:104B2000009829B10260C0E90F31012100F018BFDF
:104B30000060F8E72DE9F0479A46DDE909848146EF
:104B40006FF00303206B03EB82021044089E20F0F9
:104B50000707780707D0502080F31188BFF34F8FE5
:104B6000BFF36F8FFEE7002561B1002023180A5CB8
:104B700083F834200A5C12B1401C1028F6D384F864
:104B8000435001E084F83450072E00D30626E66235
:104B9000C4E91165201D00F07CFC04F1180000F050
:104BA00078FC2461C6F107006462A061E56484F8C2
:104BB000505052464946384600F004F92060B8F19A
:104BC000000F01D0C8F80040BDE8F08730B51149AA
:104BD00000E011460A688242FBD34B685C188442AD
:104BE00003D1406818444860084643681C18944242
:104BF00009D1084C183C2468A24209D052681A44D2
:104C000042600A6812680260814200D0086030BDCC
:104C10000460F9E76804002010B5044600F060FC69
:104C2000A06B28B15FF0000400F07AFC204610BDB4
:104C30000124F9E70648416B096829B1416BC9684D
:104C4000C9684968816270474FF0FF31FAE7000098
:104C50001404002008484068401C4FF0500080F3C6
:104C6000118804D0BFF34F8FBFF36F8FFEE7BFF300
:104C70004F8FBFF36F8FFEE7700400202DE9F041E6
:104C8000044600F02DFC94F9455004F1240609E097
:104C9000606A48B1304601F0A5F908B100F0F0FCB7
:104CA0006D1E6DB2002DF3DC4FF0FF3684F84560C9
:104CB00000F036FC00F014FC94F9445004F11007A5
:104CC00009E0206948B1384601F08CF908B100F0DC
:104CD000D7FC6D1E6DB2002DF3DC84F84460BDE896
:104CE000F04100F01DBC00002DE9F0410546002711
:104CF00000F01AFD324E306808B9FFF7AFFE706958
:104D000005424ED1C5B3083568070ED005F007003F
:104D1000C0F108000544680707D0502080F31188CF
:104D2000BFF34F8FBFF36F8FFEE72DB370688542DF
:104D300037D82348183001460C6801E020460C465D
:104D40006168A94202D221680029F7D131688C42FA
:104D500027D007682168016060680837411B102967
:104D60000FD96019420708D0502080F31188BFF393
:104D70004F8FBFF36F8FFEE713E041606560FFF771
:104D800025FF61687068401A7060B268904200D276
:104D9000B060706901430020C4E90001F068401C64
:104DA000F06001F059F9780707D0502080F311889E
:104DB000BFF34F8FBFF36F8FFEE73846BDE8F0813A
:104DC0005004002010B5031F4FF080741C601B1F9F
:104DD00021F001011960191F044B0B6014390A609E
:104DE000091F6FF0020244380A6010BD554C0008DC
:104DF00070B5054600242146284600F005F8641CDD
:104E000014F0FF04F7D070BD7CB500240D460646B3
:104E10000094234622460194FEF76AF805EB8500CC
:104E2000002206EB00108118521C81F83C40202A19
:104E3000F9D380F82940C4627CBDF0B415460E4613
:104E4000D0F8E44129463046A446F0BC1A466047F3
:104E50002DE9FF47044690F87E008946C8B1A16855
:104E600009EBC90511F81500C00712D160694FF0B0
:104E7000000801AA0189CDF8048001EB090086B27F
:104E8000CDF8088049462046CDF80C80FDF719FE84
:104E900018B1002004B0BDE8F087A068062101EB3E
:104EA0004501415ABDF80420914211D1092101EB7D
:104EB00045019DF80720415C914209D10A2101EB8F
:104EC00045010844082202A9FBF7D2FA0028E1D0E4
:104ED000606850F83600416CC06A0F88068897B148
:104EE000A168022000EB450A31F90A00FBF722FD18
:104EF0003B46174A49462046CDF80080FDF7AAF9FF
:104F0000A26822F80A00E6B1A168042000EB450778
:104F1000C85FFBF70FFD642046434FF47A70B6FB81
:104F2000F0F30C4A49462046CDF80080FDF792F98F
:104F3000A168C853A06810F8151041F0010100F8ED
:104F4000151001AA4946204600F006F80120A1E705
:104F5000F11F00081920000830B401EBC10106243C
:104F6000836804EB4101194413680B6053684B607C
:104F700093688B60D0F8E00130BC1146FDF74ABE63
:104F80003EB590F87840052C01D07F2C09D101293D
:104F9000416908D0498821B11144826952889142FF
:104FA0000ED9FF203EBD09880029FAD0114482693C
:104FB00012889142F5D8426852F83110096A03E02C
:104FC000426852F8311049696A460988ADF8001004
:104FD00000218DF8021008218DF8031000215518CA
:104FE0005C5C491CC9B22C710829F8D3D0F8E001E7
:104FF0001146FDF70FFE3EBD7CB58026DDE9065467
:105000008DF800608DF801301B0A8DF802308DF8A4
:105010000440230A8DF80530230C8DF80630230E4A
:105020008DF807308DF803506B46FFF7A9FF7CBD64
:1050300070B5054600F006F804462846FFF7F6FB73
:10504000204670BD0EB5D0F8C4110988ADF8001027
:1050500000218DF802108DF80310D0F8E0016946A8
:10506000FDF7D8FD0EBD00002DE9FF47426900297C
:1050700012887DD07F297BD8FAB14368046853F841
:10508000323024785B6904F5C0651E68AE4201D0F9
:10509000FF2C02D101F5C0641C60436853F8322034
:1050A000136A02681D68127802F5B064A54201D047
:1050B000FF2A02D101F5B0621A608469364E426956
:1050C000A58806F12004928894E890118DE890114B
:1050D00000236C46E2B91FE04768D0F800C057F8DB
:1050E00032709CF800A0D7F8149054F82370D9F8C7
:1050F000008007EB0A0CE04502D0BAF1FF0F03D1A4
:1051000007EB010CC9F800C05B1C521CDBB292B269
:10511000AA4201D8042BDFD38469002330362589C5
:10512000426996E8D01012898DE8D0106C46D2B949
:105130001DE04668076856F8326097F80090D6F888
:10514000148054F82360D8F800C006EB0907BC456A
:1051500002D0B9F1FF0F02D10E44C8F800605B1C09
:10516000521CDBB292B2AA4201D8042BE1D300E078
:105170000FE00268D0F8143212781D6802F1800442
:10518000A54201D0FF2A02D101F180021A60006815
:105190000170BDE8FF870000F4610008202A01D9F2
:1051A000FF20704701EB810100EB011042630020FA
:1051B000704700007CB5044690F87800884244D0DF
:1051C000244D31B1042930D005291FD07F293FD18A
:1051D0000EE0D5E90001CDE90001002084F8780057
:1051E0006946204600F0A4F8D4F88010204688478D
:1051F000D5E90201CDE900017F2084F878006946F5
:10520000204600F095F8D4F884101CE000B3D5E9EE
:105210000401CDE90001052084F8780069462046A4
:1052200000F086F8D4F888100DE088B1D5E90601C1
:10523000CDE90001042084F878006946204600F09A
:1052400077F8D4F88C102046884794F878007CBD15
:10525000FF207CBDF461000804490A6810448A6894
:10526000B0FBF2F302FB130048607047D403002048
:105270000EB501680122097841F4E061ADF8001033
:1052800000218DF802108DF804108DF80320D0F85D
:10529000E0016946FDF7BEFC0EBD000038B50446CE
:1052A000B0F9C001401C02D0204600F02BF8134B8F
:1052B000002241F205012046FCF747FF0F4B002278
:1052C00041F206012046FCF740FFD4F8C401006813
:1052D000400012D5D4F8C801006800280DD04FF462
:1052E0007A72B0FBF2F1B0FBF2F30091044A0021B4
:1052F0002046FCF7AFFFA4F8C00138BD991F000895
:10530000DD23000810B5002304461A4641F20501CA
:10531000FCF71BFF00231A4641F206012046FCF76A
:1053200014FFB4F9C001FBF705FBA4F8C00110BDE0
:105330002DE9F0410D460446497890F97A0001269E
:10534000002719B148B984F87A6006E0012804D131
:1053500084F87A702046FFF74BFDE878002894F82F
:105360007C0006D060B984F87C602046FFF796FF89
:1053700006E0012804D184F87C702046FFF7C2FFC4
:105380002879002894F87D0006D060B984F87D6003
:105390002046FDF7F1FD06E0012804D184F87D7078
:1053A0002046FDF7F2FDA878002894F87B0006D08F
:1053B00060B984F87B602046FDF794FC06E0012884
:1053C00004D184F87B702046FDF79CFC68790028A6
:1053D00094F87E0006D060B984F87E602046FCF721
:1053E00031FE06E0012804D184F87E702046FCF7E7
:1053F00055FE2878002894F8790005D0002801D1BE
:1054000084F87960BDE8F0810128FBD184F87970D7
:105410002046BDE8F041FFF72BBF000007480168B8
:10542000491C01608268914201D3002101604268F9
:10543000914202D1C160FDF7DFB87047D40300206C
:10544000D0E9013201699A60D0E901235A604A68C3
:10545000824201D182684A60002202610868401ECF
:105460000860086870470000034B036003F15400B4
:105470000860802010607047FC04002000F10801E3
:105480004FF0FF32C0E90112C160016100210160EB
:10549000704700210161704730B50B685A1C02D07B
:1054A00000F1080202E0026904E02246546825681F
:1054B0009D42FAD953684B6099608A6051600861D7
:1054C0000168491C016030BD42684A6093688B6086
:1054D00093685960916008610168491C01607047D8
:1054E000502080F31188BFF34F8FBFF36F8F0A49AD
:1054F0004868401C486001280CD10848006810F03A
:10550000FF0F07D0502080F31188BFF34F8FBFF3F8
:105510006F8FFEE7704700007004002004ED00E08C
:105520000849486828B1401E486001D180F31188BD
:105530007047502080F31188BFF34F8FBFF36F8FF8
:10554000FEE700007004002070B500282AD0164D38
:10555000A0F1080460686969084207D1502080F30F
:105560001188BFF34F8FBFF36F8FFEE722683AB108
:10557000502080F31188BFF34F8FBFF36F8FFEE78A
:105580008843606000F0D0F860686968084468602B
:105590002046FFF71BFB2869401C2861BDE87040CE
:1055A00000F05ABD70BD0000500400204FF0E02014
:1055B00000210161816105494FF47A720968B1FBEC
:1055C000F2F1491E4161072101617047100400207A
:1055D00010B5FAF7A5FE114910280ED300F1E0200E
:1055E00090F8F0030A78904207D2502080F3118897
:1055F000BFF34F8FBFF36F8FFEE7094800688968DC
:1056000000F4E060884207D9502080F31188BFF38E
:105610004F8FBFF36F8FFEE710BD000070040020B6
:105620000CED00E010B5020014D00F48006B38B14B
:10563000502080F31188BFF34F8FBFF36F8FFEE7C9
:1056400000F072F800211046FFF704F900F004FDA5
:10565000002807D105494FF080500860BFF34F8FF5
:10566000BFF36F8F10BD00001404002004ED00E0B4
:1056700002490A6A0260C968416070471404002048
:1056800001490120C86170471404002010B50C4680
:1056900050B1094909681831FFF7FEFE2046BDE800
:1056A00010400121FFF7D6B8502080F31188BFF3D6
:1056B0004F8FBFF36F8FFEE71404002010B586B044
:1056C0000024039405AA04A903A80494FFF7CCFEC0
:1056D000DDE903010094CDE9011000230EA110487B
:1056E000059A00F094FB0F490028C86211D05020A1
:1056F00080F31188BFF34F8FBFF36F8F4FF0FF30F0
:10570000886201204861CC6006B0BDE8104000F01E
:1057100041B806B010BD000049444C4500000000EF
:10572000A94A0008140400200248016B491C0163C7
:1057300070470000140400201448016B11B10121CE
:10574000C16170470021C1610169B1FA81F1C1F104
:105750001F0101EB81020E4951F822306BB101EBC0
:10576000820101F108034A6852684A609A4201D1F5
:1057700052684A60D16801607047502080F31188F8
:10578000BFF34F8FBFF36F8FFEE7000014040020BC
:10579000640800201CB537480168374A914207D198
:1057A000502080F31188BFF34F8FBFF36F8FFEE758
:1057B00000683149491E884207D1502080F3118882
:1057C000BFF34F8FBFF36F8FFEE72C49087801902E
:1057D000FF20087008788DF800009DF800009DF803
:1057E000002000F0F000904207D0502080F3118894
:1057F000BFF34F8FBFF36F8FFEE79DF80000204C83
:1058000000F0500020700720A06005E09DF8002007
:1058100052008DF80020401E9DF800201206F5D49D
:10582000A060032807D0502080F31188BFF34F8F6A
:10583000BFF36F8FFEE74FF44070A06001980870CF
:105840000C482030016841F470010160016841F0AA
:1058500070410160FFF7AAFE00206060FAF728FDA2
:105860000848016841F040410160FAF70DFD002051
:105870001CBD000000ED00E071C20F4100E400E03B
:105880007004002034EF00E010B502460021012032
:1058900000F012F80446FFF737F9204610BD38B57E
:1058A0000B46002200901146012000F026F8044625
:1058B000FFF72AF9204638BDF8B517460E46050011
:1058C00013D005FB06F04830FFF70EFA04000AD0AB
:1058D000002084F8460004F148023B463146284641
:1058E0000094FFF71CF92046F8BD502080F3118882
:1058F000BFF34F8FBFF36F8FFEE738B5049D18B12C
:1059000053B1CAB181B120E0502080F31188BFF3B8
:105910004F8FBFF36F8FFEE7502080F31188BFF3E6
:105920004F8FBFF36F8FFEE7502080F31188BFF3D6
:105930004F8FBFF36F8FFEE739B1502080F311888E
:10594000BFF34F8FBFF36F8FFEE748241C46012340
:1059500084F846302B460094FFF7E1F8204638BD26
:1059600070B50D46040025D0FFF7BAFDD4E90F202D
:10597000216802FB0011A1600021A1632168616020
:105980000A46D4E90F01401E00FB0121E1602146D7
:105990004FF0FF3001F8440F487004F110008DB152
:1059A000FFF76CFD04F12400FFF768FDFFF7B8FD79
:1059B000012070BD502080F31188BFF34F8FBFF3DB
:1059C0006F8FFEE721690029F0D000F00BFB002863
:1059D000ECD004494FF080500860BFF34F8FBFF305
:1059E0006F8FE3E704ED00E02DE9FF4782B01D462D
:1059F0008A464FF00008040003D0BAF1000F08D027
:105A000011E0502080F31188BFF34F8FBFF36F8FE9
:105A1000FEE7206C38B1502080F31188BFF34F8F20
:105A2000BFF36F8FFEE7022D0AD1E06B012807D08C
:105A3000502080F31188BFF34F8FBFF36F8FFEE7C5
:105A400000F010FA3F4F4FF000094FF0805648B970
:105A5000049838B1502080F31188BFF34F8FBFF303
:105A60006F8FFEE7FFF73CFDA06BE16B884207D329
:105A7000022D05D00498D0B1B8F1000F1AD01EE065
:105A80002A4651462046FEF798FF616A19B104F193
:105A9000240000F0A7FA20B13E60BFF34F8FBFF3A0
:105AA0006F8FFFF73DFD012006B0BDE8F087FFF7DF
:105AB00037FD22E06846FFF7DBFD4FF00108FFF7F6
:105AC0002FFDFFF731FEFFF70BFD94F94400401C5A
:105AD00001D184F8449094F94500401C01D184F828
