:020000040800F2
:10000000684C002029030008F7200008551F00084D
:10001000F5200008F506000851290008000000003E
:10002000000000000000000000000000690200085D
:10003000FD08000800000000C502000815250008A2
:100040004303000843030008430300084303000878
:100050004303000843030008430300084303000868
:100060004303000843030008430300084303000858
:100070004303000843030008430300084303000848
:100080004303000843030008430300084303000838
:10009000F90600084303000843030008430300086F
:1000A00043030008E9250008430300084303000850
:1000B0004303000843030008430300084303000808
:1000C00043030008430300084303000843030008F8
:1000D00043030008430300084303000843030008E8
:1000E000430300084303000843030008F525000804
:1000F00043030008430300084303000843030008C8
:1001000043030008430300084303000843030008B7
:1001100043030008430300084303000843030008A7
:100120004303000843030008430300084303000897
:100130004303000843030008430300084303000887
:100140004303000843030008430300084303000877
:100150004303000843030008430300084303000867
:100160004303000843030008430300084303000857
:100170004303000843030008430300080000000095
:10018000430300084303000800F002F800F05CF8A5
:100190000AA090E8000C82448344AAF10107DA45E2
:1001A00001D100F051F8AFF2090EBAE80F0013F0D8
:1001B000010F18BFFB1A43F0010318472841000044
:1001C000484100000A444FF0000C10F8013B13F0C6
:1001D000070408BF10F8014B1D1108BF10F8015BA0
:1001E000641E05D010F8016B641E01F8016BF9D193
:1001F00013F0080F1EBF10F8014BAD1C0C1B09D1EA
:100200006D1E58BF01F801CBFAD505E014F8016B5B
:1002100001F8016B6D1EF9D59142D6D370470000ED
:100220000023002400250026103A28BF78C1FBD8FF
:10023000520728BF30C148BF0B6070471FB503F09D
:10024000D1FF1FBD10B510BD00F00EFA1146FFF72B
:10025000F5FF02F0C5FE00F040FA03B4FFF7F2FF2D
:1002600003BC02F007FD00002C4B19680868B0E8D9
:10027000F04F80F30988BFF36F8F4FF0000080F3D9
:10028000118870470000000008480068006880F38B
:1002900008884FF0000080F3148862B661B6BFF39F
:1002A0004F8FBFF36F8F00DF00BF00BF08ED00E08E
:1002B000DFF80C00016841F470010160704700BF75
:1002C00088ED00E0EFF30980BFF36F8F134B1A68DE
:1002D0001EF0100F08BF20ED108A20E9F04F1060CB
:1002E00009B44FF0500080F31188BFF34F8FBFF374
:1002F0006F8F03F0AFFD4FF0000080F3118809BC51
:1003000019680868B0E8F04F1EF0100F08BFB0EC95
:10031000108A80F30988BFF36F8F7047380400207C
:10032000EFF30580704700000948804709480047FF
:10033000FEE7FEE7FEE7FEE7FEE7FEE7FEE7FEE795
:10034000FEE7FEE704480549054A064B70470000F2
:10035000D92500088901000868460020684C002063
:100360006848002068480020704753EA020C00F0FB
:1003700069802DE9F04B4FF00006002B1FBFB3FA48
:1003800083F503FA05F424FA05F65E4012BF16431E
:10039000B2FA82F502FA05F4C5F120051EBF22FA71
:1003A00005FC44EA0C04203556EA044C4FEA144498
:1003B00018BF641C4FF000084FF00009904271EB29
:1003C000030C39D3002919BFB1FA81F701FA07F6F6
:1003D000B0FA80F700FA07F6C7F120071EBF20FA2F
:1003E00007FC46EA0C062037B6FBF4FCA7EB050732
:1003F000103F07F01F0BCBF120060CFA0BFB2CFA79
:1004000006F644BFB3460026202FA4BF5E464FF039
:10041000000B5BEA060C08BF4FF0010B19EB0B0950
:10042000ABFB027C48EB0608C01B06FB02CC0BFBB7
:1004300003CC71EB0C01C1E70B460246414648462E
:10044000BDE8F08B13B54FF000004FF00001AFF3A3
:100450000080BDE81C4070470FB4044910B503AAE2
:10046000029800F0D3F810BC5DF814FB24040020BF
:1004700040EA010310B59B070FD1042A0DD310C821
:1004800008C9121F9C42F8D020BA19BA884201D973
:10049000012010BD4FF0FF3010BD1AB1D30703D0BB
:1004A000521C07E0002010BD10F8013B11F8014B71
:1004B0001B1B07D110F8013B11F8014B1B1B01D18D
:1004C000921EF1D1184610BD032A40F2308010F080
:1004D000030C00F0158011F8013BBCF1020F6244DF
:1004E00098BF11F801CB00F8013B38BF11F8013B70
:1004F000A2F1040298BF00F801CB38BF00F8013B1D
:1005000011F0030300F02580083AC0F0088051F88C
:10051000043B083A51F804CBA0E80810F5E7121D97
:100520005CBF51F8043B40F8043BAFF30080D207B6
:1005300024BF11F8013B11F801CB48BF11F8012B82
:1005400024BF00F8013B00F801CB48BF00F8012BA5
:10055000704710B5203AC0F00B80B1E81850203A2F
:10056000A0E81850B1E81850A0E81850BFF4F5AF53
:100570005FEA027C24BFB1E81850A0E8185044BFDD
:1005800018C918C0BDE810405FEA827C24BF51F84A
:10059000043B40F8043B08BF7047D20728BF31F83E
:1005A000023B48BF11F8012B28BF20F8023B48BF8F
:1005B00000F8012B70474FF0000200B51346944637
:1005C0009646203922BFA0E80C50A0E80C50B1F1AB
:1005D0002001BFF4F7AF090728BFA0E80C5048BFBF
:1005E0000CC05DF804EB890028BF40F8042B08BF5D
:1005F000704748BF20F8022B11F0804F18BF00F859
:10060000012B70477047704770477047074B70B5B4
:100610000D467B4400F011F80446284600F020F80F
:1006200010B14FF0FF3070BD204670BD272800008C
:1006300001694A1C02610878704700B58FB0CDE9A6
:1006400001310021059105497944CDE90310114696
:10065000684600F02EF80FB000BD0000E5FFFFFF78
:10066000007B00F080007047754600F03FF8AE4612
:1006700005006946534620F00700854618B020B5AE
:10068000FFF760FEBDE820404FF000064FF0000786
:100690004FF000084FF0000B21F00701AC46ACE82A
:1006A000C009ACE8C009ACE8C009ACE8C0098D4697
:1006B00070472DE9F04106460024D6E90170F5683F
:1006C0008046304603E04146B847641C3046A847A0
:1006D0000028F8D12046BDE8F08110B50446AFF3FC
:1006E00000802046BDE81040FFF7B7BD00487047C6
:1006F00004460020FEE70000014800F05EBA00005A
:100700003807002030B58BB00024012503940E205B
:100710000494CDE90850CDE9064505940094019470
:10072000029469460E4800F0ABF900B1FEE70C48B0
:1007300000F012FC00B1FEE70221094800F029F99F
:1007400000B1FEE7064840F221311838C4608460E9
:10075000C0E900150221016104750BB030BD000035
:10076000380700207047000010B586B040F28110B5
:100770000390042004900AA0FFF76EFE002404A852
:10078000CDE900040D48029403AB01224FF4C0519F
:10079000006802F0F5F90A48047006B010BD0000C8
:1007A000434F5F736C6176655F696E697469616CF4
:1007B00069736174696F6E0A000000000000002018
:1007C0000C00002001A0FFF747BE0000434F5F73FD
:1007D0006C6176655F6F7065726174696F6E616C74
:1007E0000A000000704770477047000001A0FFF743
:1007F00033BE0000434F5F736C6176655F70726556
:100800004F7065726174696F6E616C0A0000000060
:1008100001A0FFF721BE0000434F5F736C61766556
:100820005F73746F707065640A000000704730B4C5
:10083000D0F89C20D0F8A0404FF0FF3352F8212090
:1008400024F81130C2F307420121831883F8B01055
:10085000D0F8AC3030BC1146184700002DE9F04FFD
:100860009946DDE90A5A4FF0FF3BDDF824C041E02C
:10087000AB1A5BB20C78002B03DD00BF04FA03F463
:1008800003E0C3F1000324FA03F4E6B202DDC5F18C
:10089000080301E0C2F10803DCB2844200D9044637
:1008A00005EB0408FF2707FA08F3C5F10805EF4038
:1008B0003B439CF800509E431D4035432244D2B236
:1008C0008CF80050072A07D90022B9F1000F01D097
:1008D0005B4600E00123194408F0FF05072D07D906
:1008E0000025BAF1000F01D05B4600E001239C44D3
:1008F000001BC0B20028BBD1BDE8F08F70470000DC
:10090000411C0CD00749B1F90020904201D1521E80
:100910000A80054A00EB4000002102F830104FF039
:10092000FF307047A00400204445002072B6FEE767
:1009300070B50546D0F83801008818B300242E1988
:1009400096F8B0000F2818D028680078A04214D07C
:1009500096F8400140B9D5F8342112B12146284615
:100960009047012086F8B00096F840012146401ECD
:1009700086F84001284602F050FB641CE4B2802C4B
:10098000DDD370BDB5F93001FFF7BAFFA5F830012E
:1009900070BD90F82020012A07D0022A05D0416AB4
:1009A00041F48021416201207047006842690A4396
:1009B000426100207047F0B590F820500468A468A8
:1009C000012D05D0022D03D0416A41F4802153E06E
:1009D00014F0406F01D1E5004BD5C4F30164022C43
:1009E00003D9416A41F4000146E00125A5401D609C
:1009F0008D684FF4C0739DB1CE6835434E6845EAAB
:100A0000C605066803EB0417F5514FF4C275076875
:100A100005EB04150E697E51097D012905D009E019
:100A20000E88CD6845EA4655EBE701684E5946F415
:100A300080764E511179D2F805504FF4C67641EACE
:100A40000525016806EB04168D511178D2F80120B6
:100A50004FF4C47541EA0221026805EB04155151B7
:100A6000006803EB0411425842F00102425000209A
:100A7000F0BD416A41F4001141620120F0BD000067
:100A800010B590F82020012A07D0022A05D0416A2B
:100A900041F480214162012010BD3B48D0F8002282
:100AA00042F00102C0F80022D0F8002222F47C5269
:100AB000C0F80022D0F800224B6A42EA0322C0F8B4
:100AC00000220A7D02F01F0301229A40D0F81C3256
:100AD0009343C0F81C32CB69B3B9D0F80C329343BE
:100AE000C0F80C328C894B6864F31F434C6900EBEF
:100AF000C404C4F840320C890B6864F31F434C698A
:100B000000EBC404C4F84432CB69012B16D1D0F8F1
:100B10000C321343C0F80C320C884B6864F31F434B
:100B20004C6900EBC404C4F840320C89CB6864F310
:100B30001F434C6900EBC404C4F844328B69002B9A
:100B4000D0F804320ED01343C0F804320B69002BE6
:100B5000D0F8143208D01343C0F81432096A0129BE
:100B600004D008E09343EFE79343F5E7D0F81C1275
:100B70001143C0F81C12D0F8001221F00101C0F896
:100B80000012002010BD00000064004070470246C3
:100B9000002092F82010012901D002290CD11168FF
:100BA0008A68520100D501208A68120100D5401CD4
:100BB0008968C90000D5401C70472DE9F05F0546E3
:100BC000006800244669D0F804908768D0F80CB01B
:100BD000D0F810A0D0F81880F10748D0F90714D049
:100BE00001218160B80703D5284600F0E2F90CE046
:100BF000780702D54FF4006407E0380702D54FF4B8
:100C0000805402E0284600F0D3F9F80516D529688B
:100C10004FF480708860B80503D5284600F0CBF902
:100C20000CE0780502D544F4005407E0380502D5FD
:100C300044F4804402E0284600F0BCF9F80316D5DD
:100C400029684FF480308860B80303D5284600F047
:100C5000B4F90CE0780302D544F4004407E038030B
:100C600002D544F4803402E0284600F0A5F93007AC
:100C700007D55FEACB6004D52968102044F40074DE
:100C8000C86070074FF0080707D55FEA0B7004D5FE
:100C90002868C760284600F059F9B00706D52868CB
:100CA000C068800702D0284600F051F9700607D5C9
:100CB0005FEACA6004D52968102044F480640861A2
:100CC000B00607D55FEA0A7004D528680761284690
:100CD00000F03EF9F00606D528680069800702D0CA
:100CE000284600F036F9B00308D55FEAC96005D59B
:100CF000296810204860284600F02CF9F00307D539
:100D00005FEA097004D528684760284600F056F964
:100D1000300446D55FEA497040D5F00504D55FEA56
:100D2000C87001D044F00104B00504D55FEA8870B2
:100D300001D544F00204700504D55FEA487001D57E
:100D400044F00404300529D518F0700F26D008F0BF
:100D50007000402815D006DC102809D020280AD0C1
:100D6000302816D10AE050280ED0602811D10EE0AC
:100D700044F008040DE044F010040AE044F02004BC
:100D800007E044F0400404E044F0800401E044F44F
:100D900080742868816921F07001816129680420CC
:100DA0004860002C05D0686A204368622846FFF737
:100DB000EDFEBDE8F09F70B5040003D094F820006C
:100DC00010B104E0012070BD204600F081F82068D9
:100DD000016841F00101016000F0F0F905460526C7
:100DE00004E000F0EBF9401B0A2811D820684068A5
:100DF000C007F6D02068016821F00201016000F010
:100E0000DDF905460BE000F0D9F9401B0A2806D9A8
:100E1000606A40F40030606284F82060D2E72068A5
:100E200040688007EFD4207E0128206801683DD00B
:100E300021F080010160607E01282068016838D0BF
:100E400021F040010160A07E01282068016833D0B4
:100E500021F020010160E07E0128206801682ED089
:100E600041F010010160207F01282068016829D02D
:100E700021F008010160607F01282068016824D00A
:100E800021F004010160D4E902010843D4E904120D
:100E9000114308436168491E08432168C861002066
:100EA0006062012084F82000002070BD41F08001C4
:100EB000C0E741F04001C5E741F02001CAE721F059
:100EC0001001CFE741F00801D4E741F00401D9E770
:100ED00010B586B0044614216846FFF76CFB18492C
:100EE0002068884229D117480021026842F0007228
:100EF0000260006800F00070059012481038026827
:100F000042F001020260006800F0010005904FF419
:100F1000C05000900220CDE9010103200390092078
:100F200004906946084800F04BF80022052114207F
:100F300000F0D0F9142000F0BFF906B010BD000099
:100F40000064004040380240000002407047704793
:100F5000704770477047000070B5044690F8200055
:100F6000012804D0606A40F40020606218E002208A
:100F700084F820002068016821F00101016000F080
:100F80001DF905460EE000BF00F018F9401B0A28C5
:100F900008D9606A40F400306062052084F82000BF
:100FA000012070BD20684068C007EDD1606270BD4F
:100FB0007047704770477047704770477047000030
:100FC0002DE9F84FDFF8BCA1002201250AF1040B3E
:100FD00003264FF00F090BF1040E00BF0B6805FA52
:100FE00002F42340A34270D10F7907F00307012FC9
:100FF00001D0022F16D187684FEA420806FA08FC92
:1010000027EA0C07D1F80CC00CFA08FC4CEA070CD4
:10101000C0F808C04768A7430C79C4F30014944093
:101020003C4344600C79E443A4070AD0C4684FEA07
:10103000420C06FA0CF7BC438F6807FA0CF72743FB
:10104000C7600C7904F00304022C12D1D40800EB21
:10105000840CDCF820405707FF0E09FA07F824EA51
:101060000804D1F8108008FA07F848EA0408CCF818
:10107000208004684FEA420C06FA0CF7BC430F7953
:1010800007F0030707FA0CF7274307604C6814F4CE
:10109000403F70D03C4C276847F480472760246865
:1010A00022F0030704F480440094384C07EB040C4E
:1010B000DCF8084897074FEA177809FA08F7BC43A5
:1010C000334FB84202D1002724E054E0314FB842F8
:1010D00001D101271EE0304FB84201D1022719E0AB
:1010E0002E4FB84201D1032714E02D4FB84201D151
:1010F00004270FE02B4FB84201D105270AE02A4F01
:10110000B84201D1062705E0284FB84201D1072790
:1011100000E0082707FA08F72743CCF80878DAF840
:1011200000405746D1F804C09C435FEACC3C00D550
:101130001C433C60DBF800405F46D1F804C09C4390
:101140005FEA8C3C00D51C433C60DEF800407746EB
:10115000D1F804C09C435FEACC2C00D51C433C6012
:10116000084F0C373C68D1F804C09C435FEA8C2CD4
:1011700000D51C433C60521C102AFFF42FAFBDE881
:10118000F88F0000003C014044380240003001402C
:10119000000002400004024000080240000C02402F
:1011A000001002400014024000180240001C0240DF
:1011B0000AB1816170470904FBE7000001488068BB
:1011C000704700002804002002488168027811441A
:1011D00081607047280400200B4810B5016841F475
:1011E00000710160016841F480610160016841F4AF
:1011F00080710160032000F08DF80F2000F006F8E8
:1012000000F03EF8002010BD003C024010B5014641
:1012100088B00022192000F05DF8192000F04CF889
:1012200013480024016841F001010160006805A92C
:1012300000F001000690684600F0B6F900F0E4F90D
:101240000C494000B0FBF1F10C480B4A491E02600A
:1012500040F2E732C0E90324C0E9011400F059FC70
:1012600010B1012008B010BD044800F09DFCF9E762
:101270004438024040420F00000001400C080020AA
:101280000C4882B0016841F480410160006800F4BC
:10129000804000900748001F016841F080510160C4
:1012A0000068002200F0805000900F21901E02B0D4
:1012B00000F010B844380240002809DB00F01F029B
:1012C000012191404009800000F1E020C0F80011A8
:1012D00070470000F0B40E4B1B680C46C3F30223AA
:1012E000C3F10705042D00D90425191D072901D2D2
:1012F000002300E0DB1E012606FA05F1491E21400D
:1013000099409E40761E16403143F0BC01F022BB4E
:101310000CED00E0064900F0070208684FF6FF03F5
:10132000184040EA0220034A10430860704700005A
:101330000CED00E00000FA052DE9F84305460068D1
:101340004FF00109C1074FF0000601D1400727D532
:10135000DFF80C81C8F86860FFF730FF0746414CA2
:1013600005E000BFFFF72AFFC01B022857D82068FE
:101370000001F7D468688101287A41EA0070394990
:1013800084310860C8F86890FFF718FF074604E04A
:10139000FFF714FFC01B022841D820680001F7D5D1
:1013A0002878800752D52F484030016841F080519D
:1013B000016000682C4C00F080500090206840F4E0
:1013C00080702060FFF7FAFE074604E0FFF7F6FEA4
:1013D000C01B022823D82068C005F7D5214C7034E3
:1013E000206810F4407020D0A98901F44071814236
:1013F0001BD020681D4920F44070C1F800900E6099
:1014000020602068C00710D0FFF7D8FE064641F2E2
:10141000883707E0FFF7D2FE801BB84202D90320CD
:10142000BDE8F88320688007F4D5E9680D48C1F36A
:1014300001220830032A0BD0016821F4F811016061
:101440002068A989C1F30B01084320600020E7E769
:101450000268074B22F4F81219400A430260EFE7D2
:10146000000047420038024000700040400E4742F2
:10147000FFFCFF0F2DE9F0470E46050065D0DFF8B1
:101480001481D8F80000F7B200F00700B04207D28C
:1014900088F80070D8F8000000F00700B04254D17E
:1014A00028683D4C810712D5400703D5206840F4D9
:1014B000E05020602878000703D5206840F46040A1
:1014C00020602068A96820F0F00008432060287898
:1014D000C0072DD0304968680839012812D0022889
:1014E00013D0032811D00968890700292DDA216853
:1014F00021F0030101432160FFF760FE814641F2C4
:10150000883A0EE009688903EFE709688901ECE78A
:10151000FFF754FEA0EB0901514502D90320BDE8B5
:10152000F0872068696800F00C00B0EB810FEFD104
:10153000D8F80010404601F00701B14207D9077002
:10154000006800F00700B04201D00120E7E72878EA
:10155000400705D52068E96820F4E0500843206082
:101560002878000706D52068296920F4604040EA01
:10157000C100206000F058F82168084AC1F3031147
:10158000515CC8400649086006480068FFF73EFE07
:101590000020C4E7003C02400838024080420008B6
:1015A000340400202C0400200F2202600C4A13682F
:1015B00003F003034360136803F0F00383601368D0
:1015C00003F4E053C36012684FF4E05303EAD2021D
:1015D00002610448006800F00700086070470000DE
:1015E00008380240003C0240044805490068096888
:1015F000044AC1F38221515CC84070473404002082
:10160000083802409042000804480549006809680B
:10161000044AC1F34231515CC84070473404002091
:101620000838024090420008154810B5006810F0D4
:101630000C02144813D04110042A0FD0082A0ED1EE
:101640000F4C241F2268236802F03F025B0207D57B
:101650002068C0F38810A0FB010106E0084610BD19
:101660002168C1F38811A1FB00010023FEF77DFE74
:101670002168C1F30141491C4900B0FBF1F010BDE4
:10168000083802400024F4002DE9F84F04006ED021
:101690002078DFF84C93C007A9F104054AD009F17E
:1016A00004000168C1F38101012908D00068C0F37A
:1016B000810002280AD1D9F80000400206D5286826
:1016C000800337D560680028E1D033E06068B0F56A
:1016D000803F10D0B0F5A02F286810D020F48030C3
:1016E0002860286820F4802028606068A8B1FFF78F
:1016F00065FD06460DE0286840F48030F4E740F4CC
:1017000080202860F7E700BFFFF758FD801B6428A2
:1017100073D828688003F7D50CE0FFF74FFD064625
:1017200005E000BFFFF74AFD801B6428F0D8286859
:101730008003F7D42078DFF8AC8280074FF0000AEE
:101740003ED5A748001D016811F00C0F08D00068B5
:10175000C0F3810002280BD1D9F80000400207D461
:101760002868800716D5E068012800D112E033E12F
:10177000E068B8B10120C8F80000FFF71FFD064679
:1017800005E000BFFFF71AFD801B0228C0D82868BB
:101790008007F7D52868216920F0F80040EAC100E9
:1017A00028600DE0C8F800A0FFF708FD064604E039
:1017B000FFF704FD801B02281FD828688007F7D494
:1017C0002078000722D5864F87486169703771B14C
:1017D00001210160FFF7F2FC064604E0FFF7EEFC92
:1017E000801B022809D838688007F7D50EE0C0F8BA
:1017F00000A0FFF7E3FC064605E082E0FFF7DEFC11
:10180000801B02287DD838688007F7D420784007ED
:1018100068D5DFF8CCB100270BF13C0BDBF80000FA
:10182000C0000BD4DBF8001041F08051CBF8001061
:10183000DBF80000012700F0805000906B4E30680C
:10184000C00510D4306840F480703060FFF7B6FCFB
:10185000009005E0FFF7B2FC0099401A022850D82A
:101860003068C005F6D55E4EA0686C3601280FD0F2
:101870000528306810D020F001003060306820F07A
:1018800004003060A068B8B1FFF798FC00900FE04A
:10189000306840F00100F4E740F004003060F7E702
:1018A000FFF78CFC0099411A41F28830814266D8DA
:1018B00030688007F4D50EE0FFF780FC009007E069
:1018C000FFF77CFC0099411A41F28830814256D8DA
:1018D00030688007F4D42FB1DBF8001021F080517C
:1018E000CBF80010A069C8B33D49091D0968C1F3D0
:1018F000810102294AD00228504607D0C8F860006A
:1019000000E03CE0FFF75AFC04463BE04746C8F8DD
:101910006000FFF753FC064605E000BFFFF74EFCF2
:10192000801B02282BD828688001F7D4D4E907014E
:101930000843A16A2E4A490802EB0141626A41EA62
:101940008211084394F82C1040EA0161C9F8001094
:1019500001203866FFF732FC044606E03EE000BF97
:10196000FFF72CFC001B022809D828688001F7D556
:1019700034E000BFFFF722FC001B022802D903203D
:10198000BDE8F88F28688001F4D427E00128F7D05B
:10199000D9F80000E26900F4800191421CD1226A6A
:1019A00000F03F01914217D147F6C071626A0140D1
:1019B000B1EB821F10D1A26A4FF0FF3300F4403127
:1019C00003EB5202B1EB024F06D194F82C1000F059
:1019D0007060B0EB016F01D00120D1E70020CFE7AC
:1019E0000438024000004742800E47420070004029
:1019F0000000FFFF70B5040002D0607F10B106E068
:101A0000012070BD00202077204600F049F8022018
:101A100060772168CA2048622168532048622046C6
:101A200000F042FCFF25042618BB206881681B4A91
:101A3000114081602168886862681043D4E90423FA
:101A40001A43104388602168E068086120680169D2
:101A5000228941EA024101612068C16821F08001C8
:101A6000C16020688068800607D4204600F034F802
:101A700018B1206845626677C2E72068016C21F4DE
:101A8000802101642068016CA2691143016420680F
:101A9000456201206077002070BD0000BFFF8FFF0E
:101AA0001FB500210091019102910391006808493E
:101AB00088420CD102200090000203906846FFF794
:101AC0003BFC08B1FEF732FF0249012008601FBD50
:101AD000002800403C0E474270B504460068C168CB
:101AE00021F0A001C160FFF769FB05464FF47A764B
:101AF00007E000BFFFF762FB401BB04201D90320A3
:101B000070BD2068C0688006F4D5002070BD7047A5
:101B1000704710B5040003D094F83D0010B107E001
:101B2000012010BD002084F83C00204600F01EF883
:101B3000022084F83D00211D206800F06BFD01208B
:101B400084F8460084F83E0084F83F0084F84000A2
:101B500084F8410084F8420084F8430084F844008B
:101B600084F8450084F83D00002010BD08B50068E9
:101B70000B49884212D10B48016841F040010160D5
:101B80000068002200F04000009005212B20FFF7A4
:101B9000A1FBBDE808402B20FFF78EBB08BD00006D
:101BA000001800404038024090F83D10012901D053
:101BB00001207047022180F83D100168CA6842F098
:101BC0000102CA6000681149884214D0B0F1804F08
:101BD00011D00F4988420ED00E4988420BD00E49D1
:101BE000884208D00D49884205D00D49884202D06C
:101BF0000C49884204D1816801F00701062903D00D
:101C0000016841F0010101600020704700000140BF
:101C10000004004000080040000C004000040140A7
:101C2000004001400018004070B5044690F83C00A8
:101C30000025012817D0012684F83C60022084F892
:101C40003D002068826822F0770222F47F428260A1
:101C50000868502838D00DDC20284FD005DC90B320
:101C6000102811D14AE0022070BD302846D040280B
:101C70000AD13BE060282FD070280DD0B0F5805FEE
:101C800003D0B0F5005F12D0012584F83D6000203C
:101C900084F83C00284670BDCB68D1E9012120685A
:101CA00000F01CFD2068816841F0770109E0CB68F5
:101CB000D1E90121206800F011FD2068816841F41C
:101CC00080418160E1E719E0CA684968206800F056
:101CD00017FD5021206806E0CA684968206800F0B6
:101CE00020FD6021206800F003FDCEE7CA68496846
:101CF000206800F005FD40212068F4E722680146D5
:101D00001046F0E7704770B50446006801694FF06F
:101D10000005C943890715D4C168C943890711D48F
:101D2000E91E016101202077206880698007204634
:101D300002D0FFF7E7FF04E000F098F8204600F03B
:101D400096F8257720680169C943490717D4C16807
:101D5000C943490713D46FF00401016102202077C1
:101D60002068806910F4407F204602D0FFF7CAFF48
:101D700004E000F07BF8204600F079F82577206831
:101D80000169C943090716D4C168C943090712D4B8
:101D90006FF008010161042020772068C069800786
:101DA000204602D0FFF7AEFF04E000F05FF82046C7
:101DB00000F05DF8257720680169C943C90617D48A
:101DC000C168C943C90613D46FF01001016108202E
:101DD00020772068C06910F4407F204602D0FFF7CA
:101DE00091FF04E000F042F8204600F040F825772B
:101DF00020680169C943C90708D1C168C943C90737
:101E000004D1891E0161204600F032F82068016982
:101E1000C943090609D4C168C943090605D46FF04E
:101E2000800101612046FFF772FE20680169C94305
:101E3000490609D4C168C943490605D46FF0400179
:101E40000161204600F01EF820680169C943890637
:101E50000BD4C168C943890607D46FF02001016122
:101E60002046BDE87040FFF753BE70BD7047704715
:101E700000680349884201D1FFF7A6B97047000006
:101E800000000140704770B5040004D094F83D0094
:101E9000002510B106E0012070BD84F83C502046BA
:101EA00000F022F8242084F83D002068C16821F465
:101EB0000051C160204600F0C5FC2068016921F492
:101EC000904101612068416921F02A014161206847
:101ED000C16841F40051C1602564202084F83D00B0
:101EE00084F83E00002070BD10B586B00446142171
:101EF0006846FEF760FB14492068884221D11348E8
:101F00000021026842F010020260006800F0100038
:101F100005900E481438026842F001020260006821
:101F200000F0010005904FF4C06000900220CDE960
:101F30000101032003900720049069460448FFF73D
:101F40003FF806B010BD00000010014044380240C8
:101F500000000240FEE70000104810B50E49016085
:101F60000321416000214FF08072C0E9021252113A
:101F700002614FF440124261017641768176C1766A
:101F800001774177FEF717FF002803D0BDE8104026
:101F9000FEF7CCBC10BD00000064004038070020F4
:101FA00000B587B01C2206496846FEF7D2FA002128
:101FB000684601F0AAF80349086007B000BD0000B8
:101FC000644200082004002070B586B014216846E1
:101FD000FEF7F1FA16480024016841F02001016083
:101FE000016801F020010591016841F08001016064
:101FF000016801F080010591016841F00101016073
:1020000000680C4E00F001004FF4C06505900022FE
:1020100029463046FFF7CCF801200095CDE90104B0
:10202000694630460394FEF7CBFF06B070BD000052
:1020300030380240001402400B4810B509490160D5
:1020400000217F22C0E90112FF22C0E90321416182
:102050008161FFF7CFFC002803D0BDE81040FEF7F8
:1020600065BC10BD00280040600700201FB500219E
:1020700011480091019102910E4A0391026053228E
:10208000C0E901214FF47A72C0E903218161FFF7B1
:1020900040FD08B1FEF74AFC4FF4805000906946BD
:1020A0000548FFF7C1FD08B1FEF740FC0248FFF705
:1020B0007BFD1FBD00180040800700200C4810B5B4
:1020C0000A4901604FF4E1314160002181600C2236
:1020D000C160C0E904128161C161FFF7D4FE00282C
:1020E00003D0BDE81040FEF721BC10BD0010014038
:1020F000C8070020FEE7FEE710B501F0C5FC002090
:1021000010BD10B5044600F0F7FE204600F0B2FE08
:10211000002010BD10B5044600F0E2FF204600F09C
:10212000A1FF002010BD0000D0F80812097869B99D
:1021300000210A4606E000BFD0F80C3243F8212007
:10214000491CC9B290F805328B42F5D8002070477F
:1021500030B401EBC102846802254FF0FF3305EB78
:102160004205635300238468062505EB4202A3520F
:1021700030BCC9B201F062BA30B401EBC10284686C
:1021800004254FF0FF3305EB420563538368C9B262
:1021900013F8124024F0010403F8124030BC01F09F
:1021A0004DBA00002DE9FC41064640694FF4C05588
:1021B0000489B0690789C4B1DFF83C80BC4214D8F7
:1021C00001AB6A462946304601F02DFA009838B92D
:1021D000019828B1C0F80880C0F80C80C0F81480BD
:1021E0006D1C641CADB2A4B2E8E73046BDE8FC410A
:1021F000002100F036BC0000472700082DE9F04719
:102200000446406900260589A069B0F8088035BBFE
:10221000BDE8F087A16806EBC607022000EB47097E
:1022200031F90900FEF76CFBA26822F80900A168E9
:10223000042000EB470931F90900FEF761FBA268B1
:10224000761CF6B222F80900A1680020062201F8E7
:102250001700A16802EB47026D1C8852ADB24545DC
:10226000D8D9D5E73EB50446D0F8A4000088A8B177
:1022700020686946007800F5E060ADF800000120B4
:102280008DF8030000208DF8020094F878008DF896
:102290000400D4F8E00100F059FD3EBD34F9A80F68
:1022A000FEF72EFB20803EBD70B504460068C16875
:1022B000490614D44FF0FF31C160FEF77FFF054699
:1022C0004FF47A7607E000BFFEF778FF401BB0427C
:1022D00001D9032070BD2068C0684006F4D50020F5
:1022E00070BD7CB51D46144601AB6A4601F09BF9F2
:1022F000009931B9019921B10079A04201D941F881
:10230000245000987CBD00002DE9FC410546406941
:102310000F464088002831D007EB870105EB0114F8
:10232000A96994F8282049881044884226D8696809
:10233000134E51F83000C06A90F800804FF0FF3023
:10234000A4F87200852084F82A0094F83200CDE9C0
:102350000006238E94F82910284601F043FAE6621D
:10236000626F2AB1414628469047E06AB04205D1E3
:10237000F9B22846BDE8FC4101F03CB9BDE8FC815A
:10238000000004052DE9F05F8B46214982460026B6
:10239000B1F900001C4691461C4D401C08E000BFEE
:1023A000B9F1000F01D02A7852B1761C36B2183537
:1023B000864201DC082EF3DB4FF0FF30BDE8F09FD2
:1023C0008846864201D1A8F8000000F041FD07468A
:1023D0004FF6FF7120468C4200D30846D8F80420FF
:1023E000BA4207D9D21B824204D93A18C8F804204D
:1023F00001F01CFBE019C5E903B0C5E901A90A9881
:102400006861012028703046D8E70000444500206C
:10241000A004002030B5002341F21805441B1360CE
:10242000A84236D014DC41F21205A0EB0504A84204
:1024300028D008DCB0F5805F22D06FF48052D04203
:102440001AD1012034E0012C1ED0052C14D11DE03E
:1024500040F6E815A4F6E810AC4224D006DCB4F54A
:10246000F47F18D0B4F5FD6F06D118E0A0F5C06078
:1024700001381AD001281AD010480860002030BD59
:10248000002015E0022013E0032011E004200C4C92
:1024900003E005200CE00B4C0620146008E0094C1A
:1024A00007200C34F9E7082002E0092000E00A20A8
:1024B0000B60054901EBC00030BD000000000206C2
:1024C00078000020A8040020F04100089F2803D1D4
:1024D000087808B1014870470020704730000906AD
:1024E00000250A4C01264FF4FA7700BFC4F8A45225
:1024F000C4F8A862384600F0FCFDC4F8A462C4F831
:10250000A852384600F0F5FDF0E700000080424296
:1025100001F084B910B5502080F31188BFF34F8FBC
:10252000BFF36F8F01F096FD18B104494FF0805052
:102530000860002080F3118810BD000004ED00E069
:1025400030B593B030216846FEF735F814210CA859
:10255000FEF731F81E480025016841F08051016006
:10256000006800F0805011901A48016841F48041E1
:1025700001600068022400F480401190092000905E
:102580004FF4803001900120CDE9050480050790CB
:1025900008AA0420A82182E813000B906846FFF7E0
:1025A00073F808B172B6FEE70CA90F2081E831007C
:1025B0004FF4A0500F904FF48050109005210CA8BC
:1025C000FEF758FF002801D072B6FEE713B030BD09
:1025D00040380240007000400248016841F4700138
:1025E0000160704788ED00E00148FFF78CBB0000F8
:1025F0000C080020054910B50020086000F0D6F84E
:10260000BDE810400248FFF77EBB00000400002038
:1026100080070020F0B50268254C264D264E274F36
:10262000274B4FF0804CA04209D0604507D0A8420C
:1026300005D0B04203D0B84201D0984204D122F074
:10264000700E4A6842EA0E02A0421BD0604519D0C3
:10265000A84217D0B04215D0B84213D0984211D03A
:10266000184DA8420ED0184DA8420BD0174DA842C5
:1026700008D0174DA84205D0164DA84202D0164DDD
:10268000A84203D122F44075CA682A434D6922F05A
:1026900080022A4302608A68C2620A688262A0429B
:1026A00001D0984201D10969016301214161F0BD66
:1026B000000001400004004000080040000C004001
:1026C0000004014000400140004401400048014036
:1026D00000180040001C00400020004010B5846835
:1026E00042EA032224F47F440A432243826010BD5D
:1026F000826822F070020A4342F00701816070474D
:1027000010B5036A046A24F001040462846924F0A9
:10271000F00444EA021423F00A020A4384610262CC
:1027200010BD10B5036A23F0100303628369046AC5
:1027300023F4704343EA023224F0A00343EA011178
:102740008261016210BD2DE9F041044690F87E00DF
:1027500048B3022A03D0032A01D0052A23D1626993
:10276000A088127A00EBC200081AC0F3C705A1685E
:1027700005EBC506022000EB4607C85FFEF7C0F870
:10278000A168C853A168042000EB4607C85FFEF7A4
:10279000B7F8A168C853A168002001F816002946BF
:1027A0002046FFF7D5FC0020BDE8F0812DE9F0417F
:1027B0004FF6FF7400F04CFB204D0246686883180A
:1027C00000211F4815E00678F6070FD006699E42E3
:1027D0001DD84669C6B1B2FBF6F706FB1727F61BF4
:1027E000032706610770A64200D23446491C09B28D
:1027F0001830B5F90060B142E5DD20466C6001F0AB
:1028000015F900260E4C13E002260670EEE7F61AC4
:102810000661E8E72078810707D520F002002070E4
:10282000A26812B1E16860689047761C36B218342D
:10283000B5F900008642EDDDBDE8F081A00400207E
:102840004445002070B5044600680169E26821F43F
:102850004051114301612169A068E269084361693F
:10286000114308432168CA6849F20C639A43024342
:10287000CA6020684169A26921F440711143416135
:1028800031492068884202D03049884202D1FEF79F
:10289000BBFE01E0FEF7A8FEE269002319216425D2
:1028A0003226B2F5004F626828D0A0FB0101930FD9
:1028B0009200FDF75AFD0146B0FBF5F06FF01802EB
:1028C000504301EB800006EB0010B0FBF5F000F088
:1028D000F002B1FBF5F002EB0012B1FBF5F06FF086
:1028E0001803584301EB800006EB0010B0FBF5F035
:1028F00000F00F0021681044886070BDA0FB01014A
:1029000092185B41FDF731FD0146B0FBF5F0020185
:10291000B1FBF5F06FF01803584301EB800006EBB4
:10292000C000B0FBF5F000F0F80002EB4002B1FB94
:10293000F5F0584301EB800006EBC000B0FBF5F06A
:1029400000F00700D6E7000000100140001401402D
:10295000FEE770470907090E002804DB00F1E020BC
:1029600080F80014704700F00F0000F1E02080F8BC
:10297000141D70472DE9FC411C468C46DDE90858C2
:102980001746D0F8E4310A9E01AA69466046984786
:10299000009911B10846BDE8FC810179B94201D81E
:1029A0002448F8E707EB470136B1026812F8212006
:1029B000D20701D02048EEE75CB10422066802EBA2
:1029C0008102D5F800C0B358634505D91B482B6078
:1029D000E1E74FF00060DEE7012303EB8101735C68
:1029E00088F8003000680821092B865807EB470259
:1029F00001EB820106D0415832462046FDF764FDC6
:102A00002E6014E040582A68014602B9324602445A
:102A100003E000BF04F8013B401C03780BB1904277
:102A2000F8D3411A2960B14201D20021017000207F
:102A3000B1E70000110009060100010605000405C8
:102A400070477047704770477047704770477047CE
:102A50007047016A0978002902D1812200F0EEBA9C
:102A600070472DE9FE4F04464069002589460689D6
:102A7000A069078994F87E0000280ED0002E6AD045
:102A8000A846CDF80080CDF80480CDF8088060E03D
:102A900005286ED00B2858D0FF20BDE8FE8F606857
:102AA00050F8360041690968002901DA0B2024E05A
:102AB000006AB9F1000F23D00178E9B3F02925D8D5
:102AC000A26805EBC50112F811305B1CDBB202F8FD
:102AD00011300278934219D1A268204602F8118081
:102AE000CDF80080CDF804806A462946CDF80880EC
:102AF00000F0C1F80028D9D10520BE42C8D92AE08B
:102B00000078FF2829D0FE2827D01CE00078FC2878
:102B100018D105EBC50A0622A16802EB4A000A1883
:102B20002946204600F0A7F80028A06810F81A10DF
:102B300003D021F0010202E016E041F0010200F8AA
:102B40001A20B3E780B1BE4205D86D1C761CEDB2E9
:102B5000B6B2BE42A3D900209FE7A06805EBC5012D
:102B600010F81100C007EDE72946204600F066FD89
:102B70009CE76A462946204600F0E4FD96E70000FF
:102B80002DE9FF4F83B09146DDE910758246D0F8FC
:102B9000E43101AA69460498984704460098002841
:102BA00003D12179494503D82E4807B0BDE8F08FFD
:102BB00009EB490625B1206810F82600022811D03B
:102BC0000121206801EB860110F80180042101EB4E
:102BD00086014558386848B1A84207D0B8F1090FB6
:102BE00002D03BE02048E0E7A84237D2DAF82420C0
:102BF00040460699904700900028D6D108202168C9
:102C000000EB860B3A6851F80B000699FDF75CFC67
:102C1000B8F1090F07D13868A84204D2236800220E
:102C200053F80B100A543D60019850B150F8293008
:102C3000494633B10A46214650469847009000283D
:102C4000B3D1206810F82600400705D5DAF8E8313E
:102C500050464A46049998470020A6E703483D603D
:102C6000A3E7000011000906020001061000070694
:102C70007047704770472DE9F04F4369834691468E
:102C80001889DBF80420C00000EBC1045B89A05860
:102C9000DB0003EBC1018F184069396889B00088F7
:102CA000D1F808A00026C0F30A01A9F800103546A3
:102CB00089F8026000200490059006EB4602142378
:102CC000396803EB82028A581368190C13F0FF0469
:102CD0002ED02B190793402B2AD8A4F1010C0123E5
:102CE00003EBDC0CCDF818C01288CDE902030DF11E
:102CF000200C0DF11808CDE9008CC2F3072204ABBB
:102D00005846FFF737FE18B1FF2009B0BDE8F08F35
:102D100009EBD502121D0092002005F00701CDE954
:102D20000110002320461A4604A9FDF797FD079DD0
:102D3000761C9AF80000F6B2B042BBD801206D1E96
:102D400000EBD50089F803000020DEE73EB5002047
:102D5000114A02900C88C2E9004090608B78D360E1
:102D6000CB7813616A4604E00B181B791354401C9E
:102D7000C0B2CB788342F7D802AB07490748FDF7CA
:102D80001AFE08B101203EBD0448FDF700FF0328EC
:102D9000FAD100203EBD00002007002038070020A7
:102DA00010B5144C12492068C0F8AC101249C0F894
:102DB00080101249C0F884101149C0F888101149D8
:102DC000C0F88C101049C0F8CC111049C0F8D011CF
:102DD0000F49C0F8E8110F49C0F83812042100F07B
:102DE00039FD0021206800F0CFFD002010BD00005B
:102DF000650700080000002069070008ED070008CB
:102E0000C507000811080008E9070008E5070008E1
:102E10002D080008E707000810B50446054B0022FE
:102E200041F20301FFF75DFAD4F8081200200870A0
:102E300010BD0000292100087047000003490A68FE
:102E40005206FCD5C2B24A60704700000010014033
:102E5000064B1868406A06494A68904201D2DB680E
:102E600018448968801A08447047000080070020D1
:102E700000000020F8B505461C4B002241F2170166
:102E8000FFF72FFA002685F8DC61344617E000BF13
:102E9000D5F89C0030F824000004000C0DD000EBA5
:102EA0004001C1EBC013124A214628460096FFF7A5
:102EB00069FAD5F8A01021F81400641CE4B2D5F822
:102EC00098000078A042E3D8D5F8A4000088002834
:102ED0000BD000EB4001C1EBC013064A002128468D
:102EE0000093FFF74FFAA5F8A800F8BD03210008EA
:102EF0002F0800086522000870B5054600240BE085
:102F0000D5F8A00030F91400FDF7FAFCD5F8A010B0
:102F100021F81400641CE4B2D5F898000078A042AF
:102F2000EED835F9A80FFDF7EBFC288070BD000046
:102F30002DE9F8431746DDE90896002501EB8102EB
:102F4000984600EB0214022E2DD0032E2BD0042E17
:102F500029D0052E27D0B4F97200FDF7D1FC00BFAF
:102F6000A4F8720084F82870A4F8308084F83290B5
:102F700084F82A6084F82B506563A56384F85C505C
:102F800084F85D5084F85E50256684F8645084F8B7
:102F9000655084F8665084F8675084F870500020BB
:102FA0006567BDE8F883034B034A0095FFF7EAF92C
:102FB000D6E70000D8B805000923000810B504467C
:102FC000FFF758FF2046BDE8104000F04BB810B5A1
:102FD0000446FFF791FF2046BDE8104000F080B89E
:102FE000FEF7FAF8FFF7ACFAFEF7EEFFFEF7B4FFD4
:102FF000FFF722F8FFF762F8FFF738F8FDF782FBDA
:10300000FFF7CEFEFEF7CCFF00F07AF8FEE70146B0
:103010000020842900D0C81C70470EB541F4E0613F
:10302000ADF8001001218DF8021000218DF8031079
:10303000D0F8E0016946FFF789FE0EBD0EB500230A
:10304000ADF800308DF802308DF8042002238DF8A1
:1030500005108DF80330D0F8E0016946FFF776FEE1
:103060000EBD000038B504461B4B002241F20C0196
:10307000FFF737F9184B002241F20D012046FFF708
:1030800030F9D4F838010088002823D0D4F83C1156
:10309000097800291ED000EB4001C1EBC0130F4A94
:1030A000002120460093FFF76DF9A4F830010020BD
:1030B000211891F8B0200F2A08D022681278824295
:1030C00004D0D4F83C21127881F84021401CC0B2D1
:1030D0008028EDD338BD0000152100083109000813
:1030E00010B50446B0F93001FDF70AFCA4F8300130
:1030F00010BD10B500B9012000F048FE002010BD41
:1031000010B500F069FE002010BD7FB50D460446E5
:103110004169B0F9080081B1A16971B1FFF777FF8A
:10312000D4E905128DE80700D4E900102B46226986
:1031300000F065FF039004B070BDFFF768FF03A9BE
:10314000CDE90001208A2B4682B2D4E9001000F0BC
:1031500029FF012801D00020EDE70398EBE770B5C7
:10316000D0F8CC110446884794F87E00002809D096
:1031700001212046FFF775FC0546D4F8D011204602
:103180008847284670BD00002DE9F041184C0F46D5
:103190000546E6682068001D00F031FD38B920685A
:1031A00090F82C1001208840216981432161681C1E
:1031B00007D137B12168BDE8F0410E48091D00F084
:1031C00061BD20683544B5424560216805D2A06BD9
:1031D000BDE8F041091D00F03DBD606B091D00F028
:1031E00039FDA06A854200D2A562BDE8F0810000E9
:1031F00038040020300900202DE9F041054600F098
:103200004DFD2E4CA068401CA06020682C4F10B1D2
:10321000606940B32DE02560A068012829D100260F
:1032200006EB860007EB800000F006FD761C072EFB
:10323000F6D323488C3000F0FFFC2148A03000F08A
:10324000FBFC1F48B43000F0F7FC1D48C83000F00C
:10325000F3FC1B48DC3000F0EFFC19488C30606355
:103260001430A06305E02068E96AC06A884200D88B
:103270002560606A401C6062E96A0120226988401A
:103280001043206101EB810007EB8000291D00F055
:10329000F9FC00F023FD606900280CD02068E96A81
:1032A000C06A884207D207494FF080500860BFF3D8
:1032B0004F8FBFF36F8FBDE8F0810000380400200E
:1032C0005408002004ED00E010B5044690F85100C9
:1032D00058B101280CD002280FD0502080F311885B
:1032E000BFF34F8FBFF36F8FFEE7206B00F00AFD37
:1032F0002046BDE8104000F005BD10BD10484FF459
:103300007051420706D0C01D0D4920F00700411A38
:10331000C1F570510B4A00230144C2E9000308398A
:10332000183A21F0070111604B600B600B1AC0E9DD
:10333000001393604FF000405360506170470000ED
:10334000440900208C040020144E154CA6F1C80737
:103350004FF08058DFF84C9012E000BF00F09EFC68
:10336000F068C568281D00F04AFCA068401EA060F7
:103370006068401E606000F0B1FC2846FFF7A4FFC3
:1033800060680028EAD138680128F9D9C9F80080B6
:10339000BFF34F8FBFF36F8FF2E700001C090020CF
:1033A0003804002004ED00E02DE9F0479A46DDE9FD
:1033B000098481466FF00303206B03EB8202104403
:1033C000089E20F00707780707D0502080F3118867
:1033D000BFF34F8FBFF36F8FFEE7002561B1002071
:1033E00023180A5C83F834200A5C12B1401C1028B0
:1033F000F6D384F8435001E084F83450072E00D30C
:103400000626E662C4E91165201D00F020FC04F1E7
:10341000180000F01CFC2461C6F107006462A06182
:10342000E56484F8505052464946384600F0C0F8EA
:103430002060B8F1000F01D0C8F80040BDE8F08767
:1034400030B5114900E011460A688242FBD34B684F
:103450005C18844203D140681844486008464368B9
:103460001C18944209D1084C183C2468A24209D087
:1034700052681A4442600A6812680260814200D0B1
:10348000086030BD0460F9E78C0400200648416BF9
:10349000096829B1416BC968C96849688162704788
:1034A0004FF0FF31FAE70000380400200848406878
:1034B000401C4FF0500080F3118804D0BFF34F8FB1
:1034C000BFF36F8FFEE7BFF34F8FBFF36F8FFEE742
:1034D000940400202DE9F0410546002700F0B2FCDD
:1034E000324E306808B9FFF709FF706905424ED1C6
:1034F000C5B3083568070ED005F00700C0F1080015
:103500000544680707D0502080F31188BFF34F8F20
:10351000BFF36F8FFEE72DB37068854237D823481D
:10352000183001460C6801E020460C466168A9424B
:1035300002D221680029F7D131688C4227D0076870
:103540002168016060680837411B10290FD9601994
:10355000420708D0502080F31188BFF34F8FBFF38C
:103560006F8FFEE713E041606560FFF769FF6168F8
:103570007068401A7060B268904200D2B0607069A2
:1035800001430020C4E90001F068401CF06000F035
:10359000C7FD780707D0502080F31188BFF34F8F05
:1035A000BFF36F8FFEE73846BDE8F081740400205A
:1035B00010B5031F4FF080741C601B1F21F0010128
:1035C0001960191F044B0B6014390A60091F6FF052
:1035D000020244380A6010BDAD34000870B50546DB
:1035E00000242146284600F005F8641C14F0FF046E
:1035F000F7D070BD7CB500240D46064600942346E6
:1036000022460194FFF794FC05EB8500002206EBAF
:1036100000108118521C81F83C40202AF9D380F810
:103620002940C4627CBDF0B415460E46D0F8E44192
:1036300029463046A446F0BC1A4660472DE9FF47AC
:10364000044690F87E008946C8B1A16809EBC90517
:1036500011F81500C00712D160694FF0000801AAE7
:103660000189CDF8048001EB090086B2CDF808800D
:1036700049462046CDF80C80FFF7FDFA18B100202E
:1036800004B0BDE8F087A068062101EB4501415A6E
:10369000BDF80420914211D1092101EB45019DF8AB
:1036A0000720415C914209D10A2101EB4501084400
:1036B000082202A9FCF7DCFE0028E1D0606850F87F
:1036C0003600416CC06A0F880688AFB1A16802203D
:1036D00000EB450A31F90A00FDF712F907EB470044
:1036E000C0EBC713154A49462046CDF80080FEF7C7
:1036F00049FEA26822F80A00CEB1A168042000EBBE
:103700004507C85FFDF7FCF864204643F3080C4A00
:1037100049462046CDF80080FEF734FEA168C85324
:10372000A06810F8151041F0010100F8151001AA69
:103730004946204600F006F80120A1E75121000883
:103740007921000830B401EBC1010624836804EB41
:103750004101194413680B6053684B6093688B6098
:10376000D0F8E00130BC1146FFF7F0BA3EB590F852
:103770007840052C01D07F2C09D10129416908D05E
:10378000498821B111448269528891420ED9FF20A3
:103790003EBD09880029FAD01144826912889142FD
:1037A000F5D8426852F83110096A03E0426852F8CD
:1037B000311049696A460988ADF8001000218DF87A
:1037C000021008218DF80310002155185C5C491C7B
:1037D000C9B22C710829F8D3D0F8E0011146FFF7DF
:1037E000B5FA3EBD7CB58026DDE906548DF8006053
:1037F0008DF801301B0A8DF802308DF80440230A41
:103800008DF80530230C8DF80630230E8DF8073027
:103810008DF803506B46FFF7A9FF7CBD70B50546D8
:1038200000F006F804462846FFF799FC204670BDD4
:103830000EB5D0F8C4110988ADF8001000218DF83C
:1038400002108DF80310D0F8E0016946FFF77EFA08
:103850000EBD00002DE9FF474269002912887DD086
:103860007F297BD8FAB14368046853F83230247852
:103870005B6904F5C0651E68AE4201D0FF2C02D121
:1038800001F5C0641C60436853F83220136A026873
:103890001D68127802F5B064A54201D0FF2A02D15A
:1038A00001F5B0621A608469364E4269A58806F156
:1038B0002004928894E890118DE8901100236C46C2
:1038C000E2B91FE04768D0F800C057F832709CF8A2
:1038D00000A0D7F8149054F82370D9F8008007EBB3
:1038E0000A0CE04502D0BAF1FF0F03D107EB010C3F
:1038F000C9F800C05B1C521CDBB292B2AA4201D8CC
:10390000042BDFD38469002330362589426996E889
:10391000D01012898DE8D0106C46D2B91DE04668EF
:10392000076856F8326097F80090D6F8148054F87B
:103930002360D8F800C006EB0907BC4502D0B9F1F6
:10394000FF0F02D10E44C8F800605B1C521CDBB2B2
:1039500092B2AA4201D8042BE1D300E00FE0026842
:10396000D0F8143212781D6802F18004A54201D00B
:10397000FF2A02D101F180021A6000680170BDE8DF
:10398000FF870000984200087CB5044690F8780054
:10399000884244D0244D31B1042930D005291FD0AC
:1039A0007F293FD10EE0D5E90001CDE900010020DB
:1039B00084F878006946204600F0ACF8D4F880100E
:1039C00020468847D5E90201CDE900017F2084F82F
:1039D00078006946204600F09DF8D4F884101CE079
:1039E00000B3D5E90401CDE90001052084F8780091
:1039F0006946204600F08EF8D4F888100DE088B1B2
:103A0000D5E90601CDE90001042084F87800694673
:103A1000204600F07FF8D4F88C102046884794F8B0
:103A200078007CBDFF207CBD9842000830B5094A73
:103A300013685C6A08494D68641B8D682C448C606F
:103A4000D468201A486058621068016841F001018A
:103A5000016030BD80070020000000200EB5016825
:103A60000122097841F4E061ADF8001000218DF8E1
:103A700002108DF804108DF80320D0F8E00169469B
:103A8000FFF764F90EBD000038B50446B0F9C00177
:103A9000401C02D0204600F027F8114B002241F2D2
:103AA00005012046FEF71DFC0D4B002241F20601E8
:103AB0002046FEF716FCD4F8C401006840000DD57E
:103AC000D4F8C8010068002808D0C308054A0021BE
:103AD00020460093FEF756FCA4F8C00138BD000054
:103AE000F92000081125000810B5002304461A46E5
:103AF00041F20501FEF7F5FB00231A4641F20601EB
:103B00002046FEF7EEFBB4F9C001FCF7F9FEA4F87D
:103B1000C00110BD2DE9F0410D460446497890F9E9
:103B20007A000126002719B148B984F87A6006E0C6
:103B3000012804D184F87A702046FFF74FFDE87819
:103B4000002894F87C0006D060B984F87C60204698
:103B5000FFF79AFF06E0012804D184F87C70204624
:103B6000FFF7C2FF2879002894F87D0006D060B9DD
:103B700084F87D602046FFF721FA06E0012804D191
:103B800084F87D702046FFF722FAA878002894F880
:103B90007B0006D060B984F87B602046FFF73CF9D3
:103BA00006E0012804D184F87B702046FFF744F931
:103BB0006879002894F87E0006D060B984F87E60A9
:103BC0002046FEF7EFFA06E0012804D184F87E7063
:103BD0002046FEF713FB2878002894F8790005D0DA
:103BE000002801D184F87960BDE8F0810128FBD17B
:103BF00084F879702046BDE8F041FFF72FBFD0E987
:103C0000013201699A60D0E901235A604A68824210
:103C100001D182684A60002202610868401E086083
:103C200008687047034B036003F15400086080206C
:103C300010607047CC04002000F108014FF0FF3203
:103C4000C0E90112C16001610021016070470021DB
:103C50000161704730B50B685A1C02D000F10802B0
:103C600002E0026904E02246546825689D42FAD9C0
:103C700053684B6099608A60516008610168491C13
:103C8000016030BD42684A6093688B6093685960F8
:103C9000916008610168491C01607047502080F301
:103CA0001188BFF34F8FBFF36F8F0A494868401CDC
:103CB000486001280CD10848006810F0FF0F07D0B9
:103CC000502080F31188BFF34F8FBFF36F8FFEE753
:103CD000704700009404002004ED00E008494868A3
:103CE00028B1401E486001D180F3118870475020F0
:103CF00080F31188BFF34F8FBFF36F8FFEE7000093
:103D00009404002070B500282AD0164DA0F10804B4
:103D100060686969084207D1502080F31188BFF3B9
:103D20004F8FBFF36F8FFEE722683AB1502080F3C8
:103D30001188BFF34F8FBFF36F8FFEE7884360603A
:103D400000F080F860686968084468602046FFF702
:103D500077FB2869401C2861BDE8704000F0E0B99D
:103D600070BD0000740400204FF0E02000210161CC
:103D7000816105494FF47A720968B1FBF2F1491E7D
:103D800041610721016170473404002010B5020031
:103D900014D00F48006B38B1502080F31188BFF366
:103DA0004F8FBFF36F8FFEE700F04CF800211046F5
:103DB000FFF7EAF900F0B4F9002807D105494FF000
:103DC00080500860BFF34F8FBFF36F8F10BD0000AE
:103DD0003804002004ED00E010B586B00024039400
:103DE00005AA04A903A80494FFF71CFFDDE9030159
:103DF0000094CDE9011000230EA11048059A00F0AF
:103E0000FEF80F490028C86211D0502080F31188B5
:103E1000BFF34F8FBFF36F8F4FF0FF3088620120E9
:103E20004861CC6006B0BDE8104000F041B806B073
:103E300010BD000049444C45000000004933000813
:103E4000380400200248016B491C016370470000E0
:103E5000380400201448016B11B10121C161704781
:103E60000021C1610169B1FA81F1C1F11F0101EBCA
:103E700081020E4951F822306BB101EB820101F150
:103E800008034A6852684A609A4201D152684A60FF
:103E9000D16801607047502080F31188BFF34F8FC5
:103EA000BFF36F8FFEE700003804002054080020A5
:103EB0001CB537480168374A914207D1502080F33A
:103EC0001188BFF34F8FBFF36F8FFEE70068314952
:103ED000491E884207D1502080F31188BFF34F8FCD
:103EE000BFF36F8FFEE72C4908780190FF20087020
:103EF00008788DF800009DF800009DF8002000F083
:103F0000F000904207D0502080F31188BFF34F8F0C
:103F1000BFF36F8FFEE79DF80000204C00F05000CB
:103F200020700720A06005E09DF8002052008DF869
:103F30000020401E9DF800201206F5D4A060032842
:103F400007D0502080F31188BFF34F8FBFF36F8FDE
:103F5000FEE74FF44070A060019808700C482030D4
:103F6000016841F470010160016841F07041016035
:103F7000FFF7FAFE00206060FCF79AF90848016834
:103F800041F040410160FCF77FF900201CBD0000BA
:103F900000ED00E071C20F4100E400E09404002055
:103FA00034EF00E02DE9FF5F8346DDE90E87994697
:103FB00016468A469000FFF78DFA05001CD0542063
:103FC000FFF788FA040014D00020256384F851001C
:103FD000CDE90240CDE900874B463246514658466E
:103FE000FFF7E2F92046FFF707F9012004B0BDE82A
:103FF000F09F2846FFF786FE4FF0FF30F6E7F0B55A
:1040000085B0DDE90B640A9DA6B1DCB154270097A9
:104010002663022684F85160002604AFCDE90246EB
:10402000CDE90057FFF7C0F92046FFF7E5F80498FF
:1040300005B0F0BD502080F31188BFF34F8FBFF360
:104040006F8FFEE7502080F31188BFF34F8FBFF3CF
:104050006F8FFEE72DE9F0412F4C0026206B28B131
:10406000A069401CA0613046BDE8F081E5686D1C88
:10407000E56013D1606B006838B1502080F311887F
:10408000BFF34F8FBFF36F8FFEE7606BA16B616370
:10409000A063206A401C2062FFF7F8F9A06ADFF8ED
:1040A0007C80854209D3606B0068A0B1606BC068FA
:1040B000C7687868854211D2A0622068C06A00EBA8
:1040C000800158F82100012800D90126E069002864
:1040D000C9D00126C7E74FF0FF30EDE7381DFFF7E5
:1040E0008EFDB86A18B107F11800FFF788FDF96A6C
:1040F0000120226988401043206101EB810108EB17
:104100008100391DFFF7BEFDF86A2168C96A88423F
:10411000C9D30126C7E70000380400205408002056
:104120002DE9F0472C4D00242746286B38B1FFF7C6
:10413000B5FD286B401E2863286B40B146E0502037
:1041400080F31188BFF34F8FBFF36F8FFEE7A9682D
:10415000224E0120D1B3A6F1B40980463068E8B1FF
:10416000F068C46804F11800FFF749FD201DFFF74F
:1041700046FDE06A2A6908FA00F11143296100EB63
:10418000800109EB8100211DFFF77CFDE06A2968B1
:10419000C96A8842E2D3C5F81C80DFE70CB1FFF79B
:1041A00075F9AC6944B14646FFF754FF00B1EE61C2
:1041B000641EF9D10020A861E86938B108490127D7
:1041C00038070860BFF34F8FBFF36F8FFFF786FD8F
:1041D0003846BDE8F08700003804002008090020B8
:1041E00004ED00E04FF04070E1EE100A704701006E
:1041F000180000200100001028000020010001101C
:104200004C000020010012105C000020010013107F
:104210007C000020010017109C00002005001810F1
:10422000E40000200300001218010020060000181E
:10423000680100200200001A800100200100012016
:104240009001002005000220060000000000000090
:10425000070008000600000000000000070008003A
:104260000B000000D8420008E12400080000000014
:1042700000000000800000000000000000000000BE
:104280000000000000000000010203040607080906
:104290000000000001020304010000000000000013
:1042A0000001010101000100000101010101000004
:1042B00000000000010001000002000000030000F7
:1042C00000040000000500008001000080020000E2
:1042D000800300008004000064656661756C74549E
:1042E00061736B000443000800000020A804000074
:1042F000C401000858440008A8040020C04700007A
:104300002002000813E00192206501020304240248
:104310000207290C221439201B02051F315A2410D0
:1043200001111201128059346A482459101A581088
:10433000B28073E8031A0658311A74202928232101
:10434000433A124B490469741A882069909A8C0C7C
:104350009A900C9A940C2A980C59601A80446948D7
:104360009AD8249ADC0C1AE00C1923111A80251211
:1043700001526469341B0801CC59282A0C0C5918C5
:104380002A100C59C09A12189A14181A160C39448B
:10439000117A01209A60501A640C69681A0C8429F9
:1043A0001469109A8C541A0D1C690C9A0E0C9A0FF1
:1043B0000C2A100C111AFF01E11A111813F0412BED
:1043C00008CC5031135329140848421B0854041ACE
:1043D00060041AEE1C1BCD24A301494982199C518B
:1043E00013432A1B0853041A47048B712C681A6C58
:1043F000981A7004131C041B20740829361A4124CF
:104400000A270F0101561AFF011A45881A44941A07
:104410004604018023FFFF1A3C881A40041A519871
:104420001A4D041A49041A4B04811315248C08737D
:104430002C1002100119111A34401A38041A2404DD
:104440000A2168D89A4F6069548210036124F41AD3
:08445000AA01414BFFFF04002B
:040000050800018965
:00000001FF
